:020000040800F2
:10000000A80400209D0100080B140008231200081A
:1000100009140008A90200088D170008000000005C
:100020000000000000000000000000001D15000896
:10003000AB02000800000000111400081F150008A2
:10004000B7010008B7010008B7010008B7010008B0
:10005000B701000813140008B7010008B701000831
:10006000B7010008B7010008B7010008B701000890
:10007000B7010008B7010008B7010008B701000880
:10008000B7010008B7010008B7010008B701000870
:10009000B7010008B7010008B7010008B701000860
:1000A000B7010008B7010008B7010008B701000850
:1000B000B7010008B7010008B7010008B701000840
:1000C000B7010008B7010008B701000815140008BF
:1000D000B7010008B7010008B7010008B701000820
:1000E000B7010008B7010008B7010008B701000810
:1000F000B7010008B7010008B7010008B701000800
:10010000B7010008B7010008D9150008B7010008B9
:10011000B7010008B7010008B7010008B7010008DF
:10012000B7010008B7010008B7010008B7010008CF
:10013000B7010008B7010008B7010008B7010008BF
:10014000B7010008B7010008B7010008B7010008AF
:10015000B7010008B7010008B7010008B70100089F
:10016000B7010008B7010008B7010008B70100088F
:10017000B7010008B7010008B7010008000000003F
:10018000B7010008B7010008DFF80CD000F07AF8DA
:1001900000480047CD170008A80400200648804703
:1001A00006480047FEE7FEE7FEE7FEE7FEE7FEE75C
:1001B000FEE7FEE7FEE7FEE7BD150008890100083F
:1001C0002DE9F05F0546002092469B46884606468C
:1001D000814640241BE0284641464746224600F01F
:1001E00041F853465A46C01A914110D31146184659
:1001F000224600F028F82D1A67EB01084F462246E8
:100200000120002100F01FF817EB00094E41201ECD
:10021000A4F10104DFDC484631462A464346BDE8E6
:10022000F09FD2B201E000F8012B491EFBD27047CB
:100230000022F6E710B513460A4604461946FFF7B2
:10024000F0FF204610BD202A04DB203A00FA02F11C
:10025000002070479140C2F1200320FA03F31943B4
:1002600090407047202A04DB203A21FA02F0002156
:10027000704721FA02F3D040C2F1200291400843B6
:1002800019467047064C074D06E0E06840F0010350
:1002900094E8070098471034AC42F6D3FFF778FF94
:1002A0002C1900084C190008FEE7704790F835102B
:1002B000022903D08021416501207047052180F883
:1002C00035100068016821F00101016000207047CD
:1002D00070B5044600F0EEF80546601C02D00448F4
:1002E0000078044400F0E6F8401BA042FAD370BD49
:1002F000000000202DE9F84FDFF880B100224FF018
:1003000003094FF00F0A0BF1040E01250B6895400D
:100310002B40AB4272D14C68012C05D0022C03D08B
:10032000112C01D0122C10D18668540009FA04F760
:10033000BE43CF68A7403743876046680C79AE4319
:10034000C4F30014944034434460C468570009FA6D
:1003500007F58E68AC43BE402643C6604C68022C4D
:1003600001D0122C12D1D40800EB840CDCF82060F0
:100370005407E40E0AFA04F826EA0806D1F81080B9
:1003800008FA04F848EA0608CCF820800468AC4370
:100390000D7905F00305BD40254305604C68E40078
:1003A00065D5374C256845F480452560246822F0E2
:1003B000030504F480440094324C2E19D6F80878D2
:1003C0009407250F0AFA05F4A7432F4CA04201D148
:1003D000002424E02D4CA04201D101241FE02C4C2C
:1003E000A04201D102241AE02A4CA04201D10324E8
:1003F00015E0294CA04202D1042410E037E0274C3C
:10040000A04201D105240AE0254CA04201D10624D6
:1004100005E0244CA04201D1072400E00824AC40B0
:100420003C43C6F80848DBF800405D464E689C43F4
:10043000F60300D51C432C60DEF8004075464E687C
:100440009C43B60300D51C432C600C4D08352C682A
:100450004E689C43F60200D51C432C60074D0C35BA
:100460002C684E689C43B60200D51C432C60521C7D
:10047000102AFFF44AAFBDE8F88F0000003C0140AD
:1004800044380240003001400000024000040240B5
:1004900000080240000C024000100240001402401C
:1004A00000180240001C02400AB181617047090433
:1004B000FBE7000001488068704700000000002052
:1004C0000248816802781144816070470000002072
:1004D0000B4810B5016841F400710160016841F4F6
:1004E00080610160016841F480710160032000F0C7
:1004F00077F8002000F006F800F024F8002010BD86
:10050000003C024070B50D4D04464FF47A712878D6
:10051000B1FBF0F00A490968B1FBF0F000F0E1FC32
:1005200048B9102C07D200222146501E00F038F89E
:1005300000206C6070BD012070BD00000000002034
:100540000C0000200E4808B5016841F480410160AC
:10055000006800F4804000900948001F016841F0E5
:10056000805101600068002200F080500090114628
:10057000052000F015F8BDE80840052000F002B89D
:1005800044380240002809DB00F01F02012191409D
:100590004009800000F1E020C0F800117047000021
:1005A000F0B40E4B1B68C3F30223C3F10704042C01
:1005B00000D904241D1D072D01D2002300E0DB1EFD
:1005C000012606FA04F56D1E0D409D409E40761EE4
:1005D000164045EA0601F0BC01F0D9B80CED00E088
:1005E000064A00F0070110684FF6FF03184040EA82
:1005F0000120034908431060704700000CED00E043
:100600000000FA05704700002DE9F0470D46040090
:1006100065D0DFF81491D9F80000EFB200F00F00B8
:10062000A84207D289F80070D9F8000000F00F0046
:10063000A84254D120683D4E810712D5400703D50A
:10064000306840F4E05030602078000703D530680F
:1006500040F4604030603068A16820F0F00008434A
:1006600030602078C0072DD03049606808390128F3
:1006700012D0022813D0032811D009688907002955
:100680002DDA316821F0030101433160FFF712FFD9
:10069000804641F2883A0EE009688903EFE709686D
:1006A0008901ECE7FFF706FFA0EB0801514502D9ED
:1006B0000320BDE8F0873068616800F00C00B0EB03
:1006C000810FEFD1D9F80010484601F00F01A9427F
:1006D00007D90770006800F00F00A84201D0012080
:1006E000E7E72078400705D53068E16820F4E0505E
:1006F000084330602078000706D53068216920F46F
:10070000604040EAC100306000F01EF83168084ADD
:10071000C1F30311515CC8400649086006480068EF
:10072000FFF7F0FE0020C4E7003C0240083802401A
:100730001C1900080C0000200400002001490120C1
:10074000C864704700004742154810B5006810F0B3
:100750000C01144813D0144B04290FD008290ED1D2
:100760000F4C241F216801F03F022168490207D580
:100770002068C0F38810A0FB030106E0184610BDF6
:100780002168C1F38811A1FB00010023FFF718FDC8
:100790002168C1F30141491C4900B0FBF1F010BDD3
:1007A000083802400024F40040787D01054810B567
:1007B0000068000605D5FFF725FF02498020891C47
:1007C000087010BD0C3802402DE9F84F040075D0B8
:1007D0002078DFF828A3C007AAF1040548D00AF161
:1007E00004000168C1F38101012908D00068C0F349
:1007F000810002280AD1DAF80000400206D52868F4
:10080000800335D560680028E1D031E06068B0F53C
:10081000803F10D0B0F5A02F286810D020F4803091
:100820002860286820F4802028606068A0B1FFF765
:1008300041FE06460CE0286840F48030F4E740F4BE
:1008400080202860F7E7FFF735FE801B642871D809
:1008500028688003F7D50BE0FFF72CFE064604E07E
:10086000FFF728FE801B6428F1D828688003F7D49E
:100870002078DFF88C9280074FF0000B3DD59F4821
:10088000001D016811F00C0F08D00068C0F3810052
:1008900002280AD1DAF80000400206D4286880074E
:1008A00015D5E068012809D111E0E068B8B101214F
:1008B000C9F80010FFF7FEFD064605E01AE1FFF754
:1008C000F9FD801B0228C2D828688007F7D5286860
:1008D000216920F0F80040EAC10028600DE0C9F865
:1008E00000B0FFF7E7FD064604E0FFF7E3FD801BDD
:1008F00002281FD828688007F7D42078000722D55F
:100900007E4F80486169703771B101210160FFF746
:10091000D1FD064604E0FFF7CDFD801B022809D873
:1009200038688007F7D50EE0C0F800B0FFF7C2FDC9
:10093000064605E082E0FFF7BDFD801B02287DD85A
:1009400038688007F7D42078400765D56B484FF0AA
:1009500000083C300068C0000BD468483C30016897
:1009600041F08051016000684FF0010800F08050B4
:100970000090654F3868C0050FD4386840F4807027
:100980003860FFF797FD064604E0FFF793FD801BF4
:10099000022853D83868C005F7D5584FA0686C377F
:1009A00001280FD00528386810D020F001003860E9
:1009B000386820F004003860A068B0B1FFF77AFD15
:1009C00006460EE0386840F00100F4E740F004000D
:1009D0003860F7E7FFF76EFD811B41F288308142F6
:1009E00063D838688007F5D50DE0FFF763FD06464C
:1009F00006E0FFF75FFD811B41F28830814254D849
:100A000038688007F5D4B8F1000F05D03B483C307A
:100A1000016821F080510160A069B8B33749091D10
:100A20000968C1F38101022946D00228584606D040
:100A3000C9F86000FFF73EFD044639E035E04F4657
:100A4000C9F86000FFF736FD064604E0FFF732FD07
:100A5000801B022829D828688001F7D4D4E907012F
:100A60000843A16A294A490802EB0141626A41EA46
:100A70008211084394F82C1040EA0161CAF8001072
:100A800001203866FFF716FD044605E034E0FFF765
:100A900011FD001B022808D828688001F7D52BE03B
:100AA000FFF708FD001B022802D90320BDE8F88FDC
:100AB00028688001F4D41FE00128F7D0DAF800009C
:100AC000E26900F48001914214D1226A00F03F01F2
:100AD00091420FD147F6C071626A0140914209D13B
:100AE000A26A00F44031914204D1E16A00F07060E2
:100AF000884201D00120D9E70020D7E7043802401E
:100B000000004742800E4742007000400000FFFF97
:100B10007047000038B5016804464A688868C043D9
:100B2000430606D5C30704D1D3435B0601D4216C29
:100B300005E0830708D4D3431B0605D4616C01B0DC
:100B40002046BDE830400847830603D5430601D55B
:100B5000C30551D4D3439B064ED443060AD494F81C
:100B60005130032B49D0636D43F004036365CB68B8
:100B70008B680093830609D4636D43F001036365BA
:100B80008B6800930B6823F040030B60C00506D40C
:100B9000606D40F008006065206880680090606DBE
:100BA000002829D02068416821F0E001416001203F
:100BB00084F85100900701D4D00722D02068416802
:100BC00021F003014160114DE06C40B10565E06C1E
:100BD000FFF76CFB18B1606D40F040006065A06CE1
:100BE000002809D00565A06CFFF760FB002803D042
:100BF000606D40F04000606538BDC868886800904E
:100C000038BD2046FFF784FF38BD000021140008DE
:100C100070B5040005D00025A56294F8510010B10C
:100C200006E0012070BD84F85050204600F030F8F6
:100C3000022084F851002068016821F04001016021
:100C4000D4E901010843D4E903121143084361695F
:100C50000843218B01F400710843E1690843216ACC
:100C60000843A16A084321680860A069042101EAD9
:100C70001040616A0843216848602068C16921F416
:100C80000061C1616565012084F85100002070BDDC
:100C900010B586B0044614216846FFF7C9FA174913
:100CA0002068884228D116480021026842F4805208
:100CB0000260006800F48050059011481438026802
:100CC00042F001020260006800F001000590E0209F
:100CD00000900220CDE9010103200390052004903B
:100CE00069460848FFF706FB002211462320FFF75C
:100CF00057FC2320FFF746FC06B010BD0030014032
:100D000044380240000002402DE9F84F044690F8B4
:100D1000500001250A9E1F4692468B464FF0000860
:100D200001280ED0012084F85000FFF7C3FB814654
:100D300094F85100616801280CD0B1F5827F07D189
:100D400002E00220BDE8F88FA16809B9042801D0AB
:100D50000220B6E0BBF1000F27D0BAF1000F24D07B
:100D60001FB394F85100042802D0052084F85100E4
:100D700000206065C4F838A0E787A787C4F830B0C2
:100D8000E786A7862064606420680168490603D46A
:100D9000016841F040010160E068B0F5006F6068F3
:100DA00005D0E8B3012F43D079E0012089E008B1F4
:100DB000012F34D1206B21680088C860206B801C13
:100DC0002063E08E401EE08629E020688168890764
:100DD0000DD5E18E59B1012D09D1216B0988C16072
:100DE000206B801C2063E08E401EE086002520687A
:100DF0008168C9070BD0E18F49B1C068A16B088039
:100E0000A06B801CA063E08F401EE0870125FFF7E8
:100E100051FBA0EB0900B04201D3701C50D100E09F
:100E200006E0E08E0028D0D1E08F0028CDD13CE054
:100E3000206B216800780873206B401C2063E08ED3
:100E4000401EE0862BE02068816889070DD5E18E81
:100E500059B1012D09D1216B09780173206B401C18
:100E60002063E08E401EE086002520688168C90767
:100E70000BD0E18F49B1C068A16B0870A06B401C1A
:100E8000A063E08F401EE0870125FFF713FBA0EB76
:100E90000900B04202D3701C01D011E086B1E08E8F
:100EA0000028D0D1E08F0028CDD14A4631462046D7
:100EB00000F0BEFA38B120204FF00108606508E06C
:100EC0000320804605E0A06818B92068C1688068E2
:100ED0000090012084F85100002084F85000404622
:100EE00030E710B5401EB0F1807F01D3012010BD66
:100EF0004FF0E02460610F21601700F048FC0020F3
:100F0000A06107202061002010BD704770470000DD
:100F100070B590F83C20012A32D0012580F83C5071
:100F2000022280F83D2002685368946823F070061E
:100F30000B6833435360134B02689A4214D0B2F1EA
:100F4000804F11D0104B9A420ED0104B9A420BD0CA
:100F50000F4B9A4208D00F4B9A4205D00E4B9A4243
:100F600002D00E4B9A4204D1496824F08003194301
:100F7000916080F83D50002180F83C10084670BD1B
:100F8000022070BD00000140000400400008004045
:100F9000000C0040000401400040014000180040E7
:100FA00010B5040003D094F83D0010B107E0012013
:100FB00010BD002084F83C00204600F00DF802200F
:100FC00084F83D00211D206800F00CFB012084F80E
:100FD0003D00002010BD000008B500680B498842A4
:100FE00012D10B48016841F008010160006800223D
:100FF00000F00800009011463220FFF7D1FABDE85A
:1010000008403220FFF7BEBA08BD0000000C0040C7
:1010100040380240704770B50446006801694FF0DF
:101020000005C943890715D4C168C943890711D48C
:10103000E91E016101202077206880698007204631
:1010400002D0FFF7E7FF04E000F098F8204600F038
:10105000BCF8257720680169C943490717D4C168DE
:10106000C943490713D46FF00401016102202077BE
:101070002068806910F4407F204602D0FFF7CAFF45
:1010800004E000F07BF8204600F09FF82577206808
:101090000169C943090716D4C168C943090712D4B5
:1010A0006FF008010161042020772068C069800783
:1010B000204602D0FFF7AEFF04E000F05FF82046C4
:1010C00000F083F8257720680169C943C90617D461
:1010D000C168C943C90613D46FF01001016108202B
:1010E00020772068C06910F4407F204602D0FFF7C7
:1010F00091FF04E000F042F8204600F066F8257702
:1011000020680169C943C90708D1C168C943C90733
:1011100004D1891E0161204600F058F82068016959
:10112000C943090609D4C168C943090605D46FF04B
:10113000800101612046FFF7E8FE20680169C9438C
:10114000490609D4C168C943490605D46FF0400176
:101150000161204600F064F820680169C9438906EE
:101160000BD4C168C943890607D46FF0200101611F
:101170002046BDE87040FFF7C9BE70BD704770B52E
:101180000D46040003D094F83D0010B107E00120A3
:1011900070BD002084F83C00204600F015F80220C5
:1011A00084F83D00211D206800F01CFA20680168C9
:1011B00021F00801016020680168294301600120D5
:1011C00084F83D00002070BD70477047704770B5CF
:1011D000044690F83C00012810D0012584F83C50CA
:1011E000022084F83D00204600F06AFA002138B160
:1011F00084F83D5084F83C10012070BD022070BD81
:101200002068C26822F04002C2602068C26822F4EE
:101210008042C26084F83D5084F83C10002070BDCC
:101220007047FEE73EB501EB0020002380B2ADF829
:101230000430ADF808001AB100F50040ADF8080020
:101240000B4C002208212046FFF72EF90A210091BD
:10125000012301AA02A90748FFF756FD0122082130
:101260002046FFF721F9BDF80400C0B23EBD0000E2
:1012700000100240100000202DE9F04186B014213A
:101280006846FEF7D5FF2E480024016841F01001A2
:101290000160016801F010010591016841F08001D1
:1012A0000160016801F080010591016841F00101D0
:1012B0000160016801F001010591016841F0080138
:1012C0000160016801F008010591016841F0020127
:1012D000016000681B4E00F002000590002208210A
:1012E0003046FFF7E1F8184F0022FF213846FFF79C
:1012F000DBF8DFF85880002230214046FFF7D4F8B1
:10130000082000900125CDE9015469463046039438
:10131000FEF7F0FFFF20CDE900050320CDE90240F4
:1013200069463846FEF7E6FF30200090CDE90154CB
:10133000694640460394FEF7DDFF06B0BDE8F08144
:101340003038024000100240000C0240000402400D
:101350000F4810B50D4901604FF4827141600021C2
:101360004FF40062C0E9021292100161C0E9051257
:101370001822C0E90721416281620A21C162FFF798
:1013800047FC002801D072B6FEE710BD00300140D6
:101390001000002010B588B014216846FEF748FF01
:1013A00000241848059416490694C0E900144CF22C
:1013B0005031C0E9024104618461FFF7F1FD08B1D9
:1013C00072B6FEE708210F48FFF7D9FE08B172B6E2
:1013D000FEE70620CDE9000469460A48FFF7F7FE5C
:1013E00008B172B6FEE7059405A906480694FFF712
:1013F0008FFD002801D072B6FEE708B010BD0000D6
:10140000000C004068000020FEE7FFF7CFF9FEE780
:10141000704770470148FFF77DBB000010000020B7
:1014200010B5806B0021C187C186FFF771FB10BD2D
:1014300038B504461248134D4FF47A730068B0FB78
:10144000F5F0584300906068B0F5827F0DD10B46EF
:10145000009200228021204600F016F870B1606DE5
:1014600040F020006065032038BD009830B1401E78
:10147000009020688068C0430006F6D5002038BD83
:101480000C00002000366E012DE9F0411D46174684
:101490000E460446DDF8188008E0681C06D0FFF709
:1014A00009F8A0EB0800A8420BD255B1206880686B
:1014B00036EA000030D00020B842EED10020BDE86E
:1014C000F0812068416821F0E00141606068B0F57A
:1014D000827F0BD1A068B0F5004F02D0B0F5806FCD
:1014E00004D12068016821F040010160A06AB0F5D4
:1014F000005F09D12068016821F400510160206873
:10150000016841F400510160012084F8510000207D
:1015100084F850000320D2E70120CDE77047FEF7A2
:10152000CFBF000030B593B030216846FEF780FE93
:1015300014210CA8FEF77CFE1E480025016841F02E
:1015400080510160006800F0805011901A480168D5
:1015500041F4804101600068022400F48040119051
:1015600001200090000401908001CDE9064019207F
:1015700008904FF4A870CDE9090404200B90684648
:10158000FFF722F908B172B6FEE70CA90F2081E837
:1015900031004FF4A0500F904FF48050109005216F
:1015A0000CA8FFF731F808B172B6FEE7FFF7C6F8EE
:1015B00013B030BD4038024000700040054801685B
:1015C00041F47001016003494FF000608039086008
:1015D0007047000088ED00E00148FFF71CBD0000E7
:1015E00068000020F0B50268254D264E264FDFF832
:1015F0009CC0274B4FF0804EA84209D0704507D0C1
:10160000B04205D0B84203D0604501D0984203D122
:1016100022F070044A682243A8421BD0704519D0BA
:10162000B04217D0B84215D0604513D0984211D0BF
:10163000184CA0420ED0184CA0420BD0174CA04220
:1016400008D0174CA04205D0164CA04202D0164C30
:10165000A04203D122F44074CA6822434C6922F0AC
:101660008002224302608A68C2620A688262A842DB
:1016700001D0984201D10969016301214161F0BDA6
:10168000000001400004004000080040000C004041
:101690000004014000400140004401400048014076
:1016A00000180040001C00400020004010B5846875
:1016B00042EA032224F47F440A432243826010BD9D
:1016C00010B50268936823F070044B68234323F03D
:1016D00007040B68234393604A6812F00F0F30D160
:1016E0001211082A2DD2DFE802F02C2C2C2C0B2111
:1016F00027040B69D1E902210068FFF7D7FF20E03A
:101700000A68052A10D00268146A136A23F00103DC
:10171000136202689369096923F0F00343EA011137
:101720009161006804620CE0012010BD0A698968BB
:10173000006800F008F804E00A698968006800F0B1
:1017400013F8002010BD10B5046A036A23F00103EA
:101750000362836923F0F00343EA021324F00A02D0
:101760000A438361026210BD10B5036A23F01003BF
:1017700003628469036A24F4704444EA023223F069
:10178000A00343EA01118261016210BDFEE709076F
:10179000090E002804DB00F1E02080F800147047F7
:1017A00000F00F0000F1E02080F8141D704702E007
:1017B00008C8121F08C1002AFAD1704770470020DC
:1017C00001E001C1121F002AFBD170478CB0142127
:1017D00001A8FEF72DFD142106A8FEF729FDFEF74E
:1017E00077FEFFF79FFEFFF747FDFFF7B1FDFFF71D
:1017F000D1FD002263212020FFF714FD8DF80000A9
:10180000012200212020FFF70DFD414B63287DD0F0
:10181000002208211846FEF747FE3220FEF758FD49
:101820003C4C606900F47F4040F03C0000906061F7
:10183000394D002220212846FEF736FE01221021D4
:101840002846FEF731FE0120FEF742FD002210215E
:101850002846FEF729FE0120FEF73AFD012210215D
:101860002846FEF721FE0120FEF732FD002210215E
:101870002846FEF719FE0120FEF72AFD606900F4F4
:101880007F4040F00F000090606101221021284647
:10189000FEF70AFE0120FEF71BFD0022102128465C
:1018A000FEF702FE0120FEF713FD606900F47F40A1
:1018B00040F0010000906061012210212846FEF7EF
:1018C000F3FD0120FEF704FD002210212846FEF75B
:1018D000EBFD0120FEF7FCFC606900F47F4040F066
:1018E000060000906061012210212846FEF7DCFD11
:1018F0000120FEF7EDFC002210212846FEF7D4FD62
:101900000120FEF7E5FC0C20FBE7FFE7012280E762
:1019100000100240000C02400004024000000000E1
:101920000000000001020304060708094C19000822
:101930000000002010000000AE1700085C1900082D
:101940001000002098040000BE17000801000000ED
:0C19500010000000000000000024F40063
:040000050800018965
:00000001FF
