:020000040800F2
:10000000F00400209D010008FD18000813170008E7
:10001000F9180008A9020008951D0008000000005A
:10002000000000000000000000000000CD1B0008E0
:10003000AD0200080000000005190008CF1B0008F1
:10004000B7010008B7010008B7010008B7010008B0
:10005000B701000807190008B7010008B701000838
:10006000B7010008B7010008B7010008B701000890
:10007000B7010008B7010008B7010008B701000880
:10008000B7010008B7010008B7010008B701000870
:10009000B7010008B7010008B7010008B701000860
:1000A000B7010008B7010008B7010008B701000850
:1000B000B7010008B7010008B7010008B701000840
:1000C000B7010008B7010008B701000809190008C6
:1000D000B7010008B7010008B7010008B701000820
:1000E000B7010008B7010008B7010008B701000810
:1000F000B7010008B7010008B7010008B701000800
:10010000B7010008B7010008AD1C0008B7010008DE
:10011000B7010008B7010008B7010008B7010008DF
:10012000B7010008B7010008B7010008B7010008CF
:10013000B7010008B7010008B7010008B7010008BF
:10014000B7010008B7010008B7010008B7010008AF
:10015000B7010008B7010008B7010008B70100089F
:10016000B7010008B7010008B7010008B70100088F
:10017000B7010008B7010008B7010008000000003F
:10018000B7010008B7010008DFF80CD000F07AF8DA
:1001900000480047F11D0008F00400200648804791
:1001A00006480047FEE7FEE7FEE7FEE7FEE7FEE75C
:1001B000FEE7FEE7FEE7FEE7911C00088901000864
:1001C0002DE9F05F0546002092469B46884606468C
:1001D000814640241BE0284641464746224600F01F
:1001E00041F853465A46C01A914110D31146184659
:1001F000224600F028F82D1A67EB01084F462246E8
:100200000120002100F01FF817EB00094E41201ECD
:10021000A4F10104DFDC484631462A464346BDE8E6
:10022000F09FD2B201E000F8012B491EFBD27047CB
:100230000022F6E710B513460A4604461946FFF7B2
:10024000F0FF204610BD202A04DB203A00FA02F11C
:10025000002070479140C2F1200320FA03F31943B4
:1002600090407047202A04DB203A21FA02F0002156
:10027000704721FA02F3D040C2F1200291400843B6
:1002800019467047064C074D06E0E06840F0010350
:1002900094E8070098471034AC42F6D3FFF778FF94
:1002A000341E0008541E000800BFFEE7704772B6F7
:1002B00000BFFEE7014691F83500022803D08020F8
:1002C000486501207047052081F8350008680068FE
:1002D00020F001000A6810600020F3E7F8B502463C
:1002E0000B460025002400200021DCE0012606FA50
:1002F00001F51E6806EA0504AC4273D15E68012E62
:1003000008D05E68022E05D05E68112E02D05E68AD
:10031000122E13D190684F000326BE40B0434F0009
:10032000DE68BE4030439060506801268E40B04386
:100330001E79C6F300168E4030435060D0684F00DF
:100340000326BE40B0434F009E68BE403043D0609D
:100350005E68022E02D05E68122E13D1CF0802F121
:10036000200656F827004E07F70E0F26BE40B04372
:100370004F07FF0E1E69BE403043CF0802F1200632
:1003800046F8270010684F000326BE40B0431E7990
:1003900006F003064F00BE40304310605E6806F072
:1003A0008056B6F1805F7DD100BF00260096404E9A
:1003B000366846F480463E4F3E603E46366806F458
:1003C0008046009600BF00BF3A4E8F0856F82700BF
:1003D0008E07370F0F26BE40B043374EB24202D1D0
:1003E000002624E05EE0354EB24201D101261EE037
:1003F000334EB24201D1022619E0324EB24201D14F
:10040000032614E0304EB24201D104260FE02F4EF5
:10041000B24201D105260AE02D4EB24201D1062694
:1004200005E02C4EB24201D1072600E008268F07D6
:100430003F0FBE4030431F4E8F0846F82700264E20
:100440003068A0435E6806F48036B6F5803F00D180
:100450002043214E3060361D3068A0435E6806F4AC
:100460000036B6F5003F00D120431B4E361D3060EC
:10047000361D3068A0435E6806F48016B6F5801F0E
:1004800000D12043144E08363060361D3068A0433A
:100490005E6806F40016B6F5001F00D120430E4E2C
:1004A0000C363060491C1029FFF420AFF8BD000065
:1004B0004438024008380140000002400004024075
:1004C00000080240000C02400010024000140240EC
:1004D00000180240001C0240003C01400AB181614A
:1004E00001E00B0483617047014800687047000019
:1004F00020000020034800680349097808440149A6
:1005000008607047200000202800002010B50D482A
:10051000006840F400700B4908600846006840F429
:10052000806008600846006840F48070086003201E
:1005300000F0AAF8002000F007F800F02BF80020E7
:1005400010BD0000003C024070B504460E48007823
:100550004FF47A71B1FBF0F00C490968B1FBF0F58A
:10056000284600F06BFE08B1012070BD102C07D2A8
:1005700000222146501E00F049F80548046001E0C1
:100580000120F2E70020F0E7280000202C000020E6
:100590002400002008B500BF002000901248006829
:1005A00040F48040104908600846006800F480402C
:1005B000009000BF00BF00BF00200090081F00682F
:1005C00040F08050091F08600846006800F0805025
:1005D000009000BF00BF00221146052000F016F871
:1005E000052000F003F808BD4438024001460846E3
:1005F000002809DB00F01F0301229A4043099B00F9
:1006000003F1E023C3F8002100BF70472DE9F05F3C
:1006100080460D461646002701F0BEFB07463946C8
:100620002A46334601F00700C0F1070ABAF1040F69
:1006300002D94FF0040A01E0C0F1070AD14600F1E7
:10064000040ABAF1070F02D24FF0000A01E0A0F14C
:10065000030AD4464FF0010A0AFA09FAAAF1010A7C
:100660000AEA020A0AFA0CFA4FF0010B0BFA0CFB29
:10067000ABF1010B0BEA030B4AEA0B04214640469F
:1006800001F092FBBDE8F09F00BF00F00702064BAF
:1006900019684FF6FF031940044B0B4343EA02214C
:1006A000014B196000BF70470CED00E00000FA0537
:1006B0007047000070B504460D460CB9012070BDAE
:1006C0005848006800F00F00A84209D255490D7043
:1006D0000846006800F00F00A84201D00120EEE7B4
:1006E000207800F0020002281DD1207800F00400DC
:1006F000042805D14C48006840F4E0504A4908609D
:10070000207800F00800082805D14748006840F428
:100710006040454908604448006820F0F000A16846
:10072000084341490860207800F00100A8B36068E0
:10073000012807D13C4808380068C0F34040B8B9E8
:100740000120BCE76068022802D06068032807D156
:10075000354808380068C0F3406048B90120AEE76A
:10076000314808380068C0F3400008B90120A6E706
:100770002D48006820F00300616808432A4908609A
:10078000FFF7B2FE064609E0FFF7AEFE801B41F21E
:100790008831884202D9032091E707E022480068A7
:1007A00000F00C006168B0EB810FEDD11D480068CE
:1007B00000F00F00A84209D91A490D7008460068D8
:1007C00000F00F00A84201D0012078E7207800F067
:1007D0000400042807D11448006820F4E050E168C0
:1007E000084311490860207800F00800082808D163
:1007F0000D48006820F46040216940EAC1000A49C0
:10080000086000F01FF808490968C1F30311074A9E
:10081000515CC8400649086006480068FFF794FE2E
:1008200000204CE7003C0240083802401C1E000833
:100830002C0000202400002001200149C8647047DA
:10084000000047422DE9F047002400250026A1467C
:100850002548006800F00C0020B1042805D00828C5
:100860003AD105E0DFF8849039E0DFF8849036E093
:100870001D48001F006800F03F041B48001F00686F
:1008800000F4800078B11A481749091F0968C1F3BC
:100890008811A0FB01700146224600233846FFF76D
:1008A0008FFC05460EE011480F49091F0968C1F386
:1008B0008811A0FB01700146224600233846FFF74D
:1008C0007FFC05460848001F0068C0F30140401C3B
:1008D0004600B5FBF6F902E0DFF8109000BF00BF5C
:1008E0004846BDE8F0870000083802400024F400C4
:1008F00040787D0110B50648006800F0800080282F
:1009000005D1FFF7D5FE80200149891C087010BD74
:100910000C380240F8B504460CB90120F8BD207827
:1009200000F00100002874D0F948006800F00C00C5
:1009300004280DD0F648006800F00C00082813D1F8
:10094000F348001F006800F48000B0F5800F0BD161
:10095000EF4808380068C0F34040002859D060686C
:10096000002856D10120D9E700BF6068B0F5803F6C
:1009700008D1E7480838006840F48030E449083975
:1009800008601EE06068B0F5A02F0DD1E04808387F
:10099000006840F48020DE49083908600846006895
:1009A00040F4803008600CE0D9480838006820F432
:1009B0008030D749083908600846006820F4802054
:1009C000086000BF606890B1FFF78EFD054606E045
:1009D000FFF78AFD401B642801D903209EE7CC481D
:1009E00008380068C0F340400028F1D011E0FFF75C
:1009F0007BFD054606E0FFF777FD401B642801D923
:100A000003208BE7C24808380068C0F34040002844
:100A1000F1D1207800F0020002285FD1BC480068C4
:100A200000F00C0058B1BA48006800F00C0008282B
:100A30001CD1B748001F006800F48000B0B9B4486A
:100A400008380068C0F3400020B1E068012801D0F8
:100A5000012063E7AE480838006820F0F8002169FB
:100A600040EAC100AA490839086037E0E06800B3ED
:100A70000120A8490860FFF737FD054606E0FFF7AB
:100A800033FD401B022801D9032047E7A04808385E
:100A90000068C0F340000028F1D09D480838006885
:100AA00020F0F800216940EAC1009949083908603E
:100AB00014E0002097490860FFF716FD054606E0A0
:100AC000FFF712FD401B022801D9032026E79048BA
:100AD00008380068C0F340000028F1D1207800F009
:100AE000080008282CD16069A8B101208A49086053
:100AF000FFF7FAFC054606E0FFF7F6FC401B02286C
:100B000001D903200AE782486C300068C0F3400036
:100B10000028F1D014E000207F490860FFF7E4FCD2
:100B2000054606E0FFF7E0FC401B022801D9032040
:100B3000F4E677486C300068C0F340000028F1D13B
:100B4000207800F00400042870D100277048383065
:100B5000006800F0805090B900BF002000906C4801
:100B60003830006840F080506949383108600846E4
:100B7000006800F08050009000BF00BF0127674868
:100B8000006800F48070B0B96448006840F4807078
:100B900062490860FFF7A8FC054606E0FFF7A4FCE1
:100BA000401B022801D90320B8E65C48006800F425
:100BB00080700028F2D000BFA068012808D15448F6
:100BC0006830006840F001005149683108601DE05C
:100BD000A06805280DD14E486830006840F0040038
:100BE0004B49683108600846006840F00100086021
:100BF0000CE047486830006820F001004449683143
:100C000008600846006820F00400086000BFA06883
:100C1000A8B1FFF769FC054609E0FFF765FC401B3A
:100C200041F28831884202D9032077E626E038482D
:100C300068300068C0F340000028EED013E0FFF7F2
:100C400053FC054608E0FFF74FFC401B41F288319A
:100C5000884201D9032061E62D4868300068C0F35E
:100C600040000028EFD1012F07D129483830006813
:100C700020F0805026493831086000BFA069002864
:100C800045D02348006800F00C0008285DD0A0691A
:100C9000022845D100201F490866FFF725FC0546BC
:100CA00006E0FFF721FC401B022801D9032035E6AE
:100CB000174808380068C0F340600028F1D1D4E933
:100CC00007010843616A40EA81110122A06AC2EB70
:100CD000500041EA00412C20005D41EA00600C49CF
:100CE000091F086001200B490866FFF7FDFB054658
:100CF00006E0FFF7F9FB401B022801D903200DE6AF
:100D0000034808380068C0F340600028F1D03FE095
:100D10000838024000004742800E47420070004001
:100D200000201C490866FFF7DFFB054606E0FFF7D9
:100D3000DBFB401B022801D90320EFE516480068C1
:100D4000C0F340600028F2D122E0A069012800D160
:100D5000E4E51148001D066806F48001E06981425F
:100D600014D106F03F01206A81420FD147F6C070CE
:100D70003040616A884209D106F44031A06A81425C
:100D800004D106F07061E06A814201D00120C5E51E
:100D90000020C3E5000047420038024070470000D1
:100DA000F8B504462068466820688568C5F3801059
:100DB00048B905F0010030B1C6F3801018B12046E3
:100DC000216C8847F8BDC5F3400030B1C6F3C010B0
:100DD00018B12046616C8847F4E7C5F3401030B97C
:100DE000C5F3801018B9C5F3002000287CD0C6F3E5
:100DF000401000287DD0C5F38010F0B194F8510068
:100E000003280ED0606D40F00400606500BF002034
:100E100000902068C068009020688068009000BF43
:100E20000BE000BF002000902068C06800902068A0
:100E30008068009000BF00BFC4E7C5F3401088B1D0
:100E4000606D40F00100606500BF002000902068E8
:100E5000806800902068006820F0400021680860E9
:100E600000BF00BFC5F3002058B1606D40F008001E
:100E7000606500BF0020009020688068009000BF7F
:100E800000BF606D78B32068406820F0E000216802
:100E90004860012084F8510006F00200022802D0C8
:100EA00006F0010008B32068406820F003002168C4
:100EB0004860E06C50B11048E16C0865E06CFFF7E9
:100EC000F9F918B1606D40F040006065A06C50B158
:100ED0000948A16C0865A06CFFF7ECF918B1606DCA
:100EE00040F04000606503E003E02046FFF756FF56
:100EF00068E700BF66E70000A51A000810B50446C1
:100F00000CB9012010BD606A00B900BF0021A162C8
:100F100094F8510028B9002084F85000204600F0D1
:100F200033F8022084F851002068006820F0400067
:100F300021680860D4E901010843E1680843216998
:100F4000084361690843218B01F400710843E1699A
:100F50000843216A0843A16A084321680860042104
:100F6000A06901EA1040616A08432168486020686E
:100F7000C06920F400602168C8610020606501201C
:100F800084F851000020BDE710B586B00446142156
:100F900001A8FFF74DF91F492068884237D100BFEB
:100FA000002000901C48006840F480501A490860F6
:100FB0000846006800F48050009000BF00BF00BFEA
:100FC0000020009014481438006840F001001249D5
:100FD000143908600846006800F00100009000BF66
:100FE00000BFE02001900220029000200390032027
:100FF00004900520059001A90848FFF76FF9002229
:1010000011462320FFF702FB2320FFF7EFFA06B07B
:1010100010BD000000300140443802400000024092
:1010200070470000F0B50446002700BF94F8500058
:10103000012801D10220F0BD012084F8500000BF3A
:1010400094F851506668012D08D0B6F5827F03D11F
:10105000A06808B9042D01D0022735E009B102B11A
:101060000BB9012730E094F85100042802D0052084
:1010700084F85100002060652163A386E386A263A3
:10108000A387E387E06820B11348206413486064B5
:1010900003E013482064134860642068406840F00F
:1010A000E000D4F800C0CCF804002068006800F02C
:1010B0004000402807D02068006840F04000D4F885
:1010C00000C0CCF8000000BF00BF002084F8500032
:1010D00000BF3846AFE70000191900088119000861
:1010E0004D190008B519000838B504464A4884422D
:1010F00079D1012208214948FFF7F0F948480068F2
:10110000082871D2DFE800F081041D313D4E5E7188
:10111000444800783F2813D141480068401C4049AA
:101120000860002208213D48FFF7D8F942F2630029
:10113000009001233B4A69463748FFF773FF00BF21
:1011400067E037480068401C3549086000220821E4
:101150003248FFF7C3F94FF4204000900123314A91
:1011600069462D48FFF75EFF53E02E48007863285C
:1011700006D12D492D4800F0EFFA2D4800F07AF8FD
:1011800047E0002208212548FFF7A8F925480088F4
:101190004FF6FF7101EA002026490880244800F03C
:1011A00069F836E0002208211C48FFF797F921482A
:1011B00000881C49098808441E4908801C4800F022
:1011C00059F826E0002208211448FFF787F915484E
:1011D00000884FF6FF7101EA002017490880144883
:1011E00000F048F815E015E00FE0002208210B4858
:1011F000FFF774F9104800880A49098808440E4925
:1012000008800B4800F036F803E00020044908602D
:1012100000BF00BF38BD00003000002000100240B9
:10122000140000201E00002020A10700000C004038
:1012300088000020080000200A00002070B5044645
:101240002546681EB0F1807F01D301200FE0681EA3
:101250004FF0E02148610F214FF0FF3000F0A4FD76
:1012600000204FF0E021886107200861002070BD58
:101270007047704701460868C06840F001000B687D
:10128000D8600868806800F00702062A05D0086860
:10129000006840F001000B6818600020704770473C
:1012A00010B5044620680069C0F34000D8B120683A
:1012B000C068C0F34000B0B16FF00200216808615F
:1012C000012020772068806900F0030018B12046D3
:1012D000FFF7E5FF05E0204600F0ADF8204600F0FE
:1012E000F5F80020207720680069C0F38000D8B1AD
:1012F0002068C068C0F38000B0B16FF004002168BE
:101300000861022020772068806900F4407018B1DD
:101310002046FFF7C4FF05E0204600F08CF8204689
:1013200000F0D4F80020207720680069C0F3C000E6
:10133000D8B12068C068C0F3C000B0B16FF0080039
:1013400021680861042020772068C06900F003004C
:1013500018B12046FFF7A3FF05E0204600F06BF828
:10136000204600F0B3F80020207720680069C0F321
:101370000010D8B12068C068C0F30010B0B16FF0A1
:10138000100021680861082020772068C06900F4F7
:10139000407018B12046FFF782FF05E0204600F0BC
:1013A0004AF8204600F092F8002020772068006973
:1013B00000F0010058B12068C06800F0010030B1B1
:1013C0006FF0010021680861204600F081F8206874
:1013D0000069C0F3C01058B12068C068C0F3C010E5
:1013E00030B16FF08000216808612046FFF740FFB0
:1013F00020680069C0F3801058B12068C068C0F34D
:10140000801030B16FF0400021680861204600F084
:101410007FF920680069C0F3401058B12068C068A7
:10142000C0F3401030B16FF0200021680861204601
:10143000FFF71FFF10BD704770B504460D460CB98D
:10144000012070BD94F83D0028B9002084F83C00CC
:10145000204600F017F8022084F83D00211D206886
:1014600000F02CFC2068006820F00800216808606B
:1014700020680068284321680860012084F83D0046
:101480000020DEE738B504460E492068884217D1AF
:1014900000BF002000900C48006840F008000A4996
:1014A00008600846006800F00800009000BF00BF18
:1014B000002211463220FFF7A9F83220FFF796F8F4
:1014C00038BD0000000C004040380240704700006A
:1014D00038B50446864884427BD1864800680E2889
:1014E00078D2DFE800F0FE071E2C435168788F9D0C
:1014F000AEC2D6EA7F480068401C7E4908600021E1
:101500003C2000F009F9012210217B48FEF7E6FF9C
:101510004FF4FA61794800F01FF97548FFF7AAFE09
:10152000E3E0002210217448FEF7D8FF71480068FC
:10153000401C704908606E48FFF79CFED5E06D487E
:101540000068401C6B49086000210F2000F0E4F89F
:10155000012210216848FEF7C1FF4FF4FA61674885
:1015600000F0FAF86248FFF785FEBEE00022102185
:101570006148FEF7B3FF5F480068401C5D490860A2
:101580005B48FFF777FEB0E05A480068401C5949B5
:1015900008600021012000F0BFF801221021564808
:1015A000FEF79CFF4FF4FA61544800F0D5F850481C
:1015B000FFF760FE99E0002210214F48FEF78EFFF2
:1015C0004C480068401C4B4908604948FFF752FEF0
:1015D0008BE08BE085E047480068401C4549086087
:1015E0000021062000F098F8012210214248FEF761
:1015F00075FF4FF4FA61414800F0AEF83C48FFF740
:1016000039FE72E0002210213B48FEF767FF39489F
:101610000068401C374908603548FFF72BFE64E03E
:1016200037480068401C364908600123354A36496E
:101630003648FFF7F7FC2F480068401C2D4908602A
:1016400053E04FF4284000902D480068401C2C497E
:10165000086001232B4A69462C48FFF7E3FC254824
:101660000068401C234908603FE04FF42940009087
:1016700023480068401C224908600123214A69462A
:101680002248FFF7CFFC1B480068401C194908603E
:101690002BE04FF42A40009019480068401C18497C
:1016A00008600123174A69461848FFF7BBFC114838
:1016B0000068401C0F49086017E04FF42B40009071
:1016C0000F480068401C0E49086001230D4A694616
:1016D0000E48FFF7A7FC07480068401C0549086052
:1016E00003E000200349086000BF00BF38BD0000D0
:1016F000880000201800002000040240000C004078
:10170000140000201E0000201C00002030000020DB
:10171000704700BFFEE7000070B505460E462EB9C3
:10172000002220210A48FEF7D9FE04E001222021F0
:101730000748FEF7D3FE00BF06484069044604F49C
:101740007F442C4320460349486100BF70BD000020
:1017500000040240000C0240C162704700B587B02F
:10176000142102A8FEF764FD00BF002001903E484E
:10177000006840F010003C4908600846006800F02E
:101780001000019000BF00BF00BF0020019008467C
:10179000006840F0800008600846006800F08000A3
:1017A000019000BF00BF00BF002001900846006804
:1017B00040F0010008600846006800F00100019058
:1017C00000BF00BF00BF002001900846006840F045
:1017D000080008600846006800F00800019000BF9B
:1017E00000BF00BF002001900846006840F00200E2
:1017F00008600846006800F00200019000BF00BFCA
:10180000002208211948FEF769FE0022FF2118482E
:10181000FEF764FE002230211648FEF75FFE082026
:1018200002900120039000200490059002A90F4827
:10183000FEF754FDFF200290012003900020049049
:101840000320059002A90A48FEF748FD30200290C7
:101850000120039000200490059002A90548FEF79E
:101860003DFD07B000BD00003038024000100240CE
:10187000000C02400004024010B5104810490860F6
:101880004FF48270486000210D4881604FF4006180
:10189000C1600021016141614FF400718161182133
:1018A000C16100210162416281620A21C162FFF7C8
:1018B00025FB08B1FEF7FBFC10BD00000030014025
:1018C0003000002010B50A480A49086053204860DB
:1018D0000021084881604CF25031C1600021016153
:1018E00081610821FFF7A8FD08B1FEF7E0FC10BDFB
:1018F000000C00408800002000BFFEE7FEF7FAFF62
:1019000000BFFEE77047704710B50248FFF748FA7E
:1019100010BD00003000002010B504462068C068EB
:10192000A16B0880A06B801CA063E08F401EE08745
:10193000E08F50B92068406820F04000216848607E
:10194000E08E10B9204600F04FF810BD10B50446E7
:101950002068007BA16B0870A06B401CA063E08F27
:10196000401EE087E08F50B92068406820F060009A
:1019700021684860E08E10B9204600F035F810BDAF
:1019800010B50446206B00882168C860206B801C5D
:101990002063E08E401EE086E08E50B920684068EB
:1019A00020F0800021684860E08F10B9204600F0E8
:1019B0001BF810BD10B50446206B00782168087331
:1019C000206B401C2063E08E401EE086E08E50B904
:1019D0002068406820F0800021684860E08F10B9DE
:1019E000204600F001F810BD7CB504462C48006884
:1019F0001821B0FBF1F04FF47A71B0FBF1F06421E3
:101A000048430190FEF770FD05462068406820F0CD
:101A100020002168486000BF019820B9606D40F047
:101A20002000606508E00198401E019020688068F1
:101A300000F002000028EFD000BF2A4664212046B3
:101A400000F03AF818B1606D40F020006065A068C1
:101A500050B900BF002000902068C0680090206846
:101A60008068009000BF00BF606D88B994F8510095
:101A7000042806D1012084F851002046FFF7D0FA4F
:101A80000CE0012084F851002046FFF72DFB05E013
:101A9000012084F851002046FFF780F97CBD00004A
:101AA0002C00002070B50546AC6B0020E087E08676
:101AB0002046FFF773F970BD7CB504460D46164607
:101AC000164800681821B0FBF1F01549B0FBF1F0A1
:101AD0004FF47A71484301906068B0F5827F0DD170
:101AE0002B46002280212046009600F01BF898B17A
:101AF000606D40F02000606503207CBD00BF019850
:101B000000B908E00198401E019020688068C0F389
:101B1000C0100028F3D100BF0020EEE72C00002009
:101B200040420F002DE9F04104460E4617461D467F
:101B3000DDF818803EE0681CD8B3FEF7D5FCA0EBBA
:101B40000800A84200D2A5BB2068406820F0E00051
:101B5000216848606068B0F5827F0DD1A068B0F55B
:101B6000004F03D0A068B0F5806F05D120680068F1
:101B700020F0400021680860A06AB0F5005F0DD138
:101B800000BF2068006820F40050216808602068C9
:101B9000006840F400502168086000BF012084F80C
:101BA000510000BF002084F8500000BF0320BDE8B2
:101BB000F081FFE7206880683040B04201D1012009
:101BC00000E00020B842B6D10020F0E7704710B521
:101BD000FEF790FC10BD000000B593B0302107A8BF
:101BE000FEF726FB142102A8FEF722FB00BF00200F
:101BF00001902548006840F080502349086008465D
:101C0000006800F08050019000BF00BF00BF0020BE
:101C100001901E48006840F480401C490860084656
:101C2000006800F48040019000BF00BF01200790D1
:101C30000004089002200D9041050E9119210F918A
:101C40004FF4A8711091022111910421129107A85B
:101C5000FEF760FE08B1FEF72AFB0F20029002207B
:101C60000390002004904FF4A05005904FF4805052
:101C70000690052102A8FEF71DFD08B1FEF717FB2F
:101C8000FEF7DAFD13B000BD40380240007000409E
:101C90000548006840F47000034908604FF0006098
:101CA000014980390860704788ED00E010B50248AE
:101CB000FFF7F6FA10BD00008800002010B502689A
:101CC000294B98420ED0B0F1804F0BD0274B984251
:101CD00008D0274B984205D0264B984202D0264B7D
:101CE000984203D122F070024B681A431E4B98426F
:101CF00020D0B0F1804F1DD01C4B98421AD01C4B05
:101D0000984217D01B4B984214D01B4B984211D0CD
:101D10001A4B98420ED01A4B98420BD0194B98424E
:101D200008D0194B984205D0184B984202D0184B56
:101D3000984203D122F44072CB681A4322F0800308
:101D40004C6943EA040202608B68C3620B688362D9
:101D5000054B984202D0084B984201D10B690363AE
:101D60000123436110BD0000000001400004004059
:101D700000080040000C0040000401400040014009
:101D8000004401400048014000180040001C004091
:101D90000020004000BFFEE702480068C0F30220B8
:101DA000704700000CED00E010B5002804DB0A07C6
:101DB000130E054A135406E00A07140E034A00F0F6
:101DC0000F031B1FD45410BD00E400E018ED00E029
:101DD00002E008C8121F08C1002AFAD170477047F4
:101DE000002001E001C1121F002AFBD17047000052
:101DF000FEF78CFBFFF7F0FEFFF7B0FCFFF73CFDB2
:101E0000FFF760FD0120034908600348FFF732FA3D
:101E100000BFFEE71800002088000020000000003E
:101E2000000000000102030406070809000000008A
:101E300001020304541E00080000002030000000CE
:101E4000D01D0008841E000830000020C0040000DF
:101E5000E01D00080000000000000000000000007D
:101E60000000000000000000000000000000000072
:101E7000008F0000000000001000000001000000C2
:041E80000024F40046
:040000050800018965
:00000001FF
