:020000040800F2
:10000000F80400209D010008952100089F1F0008AA
:1000100091210008110800082D26000800000000AA
:10002000000000000000000000000000652400083F
:1000300015080008000000009D2100086724000842
:10004000B7010008B7010008B7010008B7010008B0
:10005000B70100089F210008B7010008B701000898
:10006000B7010008B7010008B7010008B701000890
:10007000B7010008B7010008B7010008B701000880
:10008000B7010008B7010008B7010008B701000870
:10009000B7010008B7010008B7010008B701000860
:1000A000B7010008B7010008B7010008B701000850
:1000B000B7010008B7010008B7010008B701000840
:1000C000B7010008B7010008B7010008A121000826
:1000D000B7010008B7010008B7010008B701000820
:1000E000B7010008B7010008B7010008B701000810
:1000F000B7010008B7010008B7010008B701000800
:10010000B7010008B701000845250008B70100083D
:10011000B7010008B7010008B7010008B7010008DF
:10012000B7010008B7010008B7010008B7010008CF
:10013000B7010008B7010008B7010008B7010008BF
:10014000B7010008B7010008B7010008B7010008AF
:10015000B7010008B7010008B7010008B70100089F
:10016000B7010008B7010008B7010008B70100088F
:10017000B7010008B7010008B7010008000000003F
:10018000B7010008B7010008DFF80CD000F01CFB35
:10019000004800476D2F0008F804002006488047FB
:1001A00006480047FEE7FEE7FEE7FEE7FEE7FEE75C
:1001B000FEE7FEE7FEE7FEE72925000889010008C3
:1001C0002DE9F05F0546002092469B46884606468C
:1001D000814640241BE0284641464746224600F01F
:1001E00006F953465A46C01A914110D31146184693
:1001F000224600F0EDF82D1A67EB01084F46224623
:100200000120002100F0E4F817EB00094E41201E08
:10021000A4F10104DFDC484631462A464346BDE8E6
:10022000F09FD2B201E000F8012B491EFBD27047CB
:100230000022F6E710B513460A4604461946FFF7B2
:10024000F0FF204610BD2DE9F04D81EA030404F0D3
:10025000004B21F0004514464FF0000A23F0004106
:1002600050EA050220D054EA01021DD0C5F30A5716
:100270000246C5F31303C1F31300C1F30A5640F459
:10028000801543F48013A7EB0608101BD64608F22E
:10029000FD3873EB050002D308F1010801E0921864
:1002A0005B41B8F1000F03DA00200146BDE8F08D94
:1002B00000204FF48011064684460EE0171B73EBB6
:1002C000050705D3121B63EB050306434CEA010C3B
:1002D00049084FEA300092185B4150EA0107EDD11E
:1002E00052EA030012D082EA040083EA05010843BF
:1002F00005D0101BAB4106D20122002306E00022EC
:100300004FF0004302E06FF0010253101AEB0600B9
:100310004CEB085110EB0A0041EB0B01BDE8F04D2E
:1003200000F0ACB80EB5C10F80EAE0700844CA070F
:10033000002140F233438DE80E000A460B4600F0E0
:10034000ACF803B000BD00F0004230F000400AD02D
:10035000C10D01F56071C0F3160042EA0151C208F7
:1003600040071143704700200146704701F00043E9
:1003700030B421F0004150EA010206D00A0DA2F586
:100380006072C1F31301002A02DC30BC0020704708
:10039000440F44EAC104C100E01830BC00EBC25075
:1003A00000F035B830B50B4601460020202201246C
:1003B00009E021FA02F59D4205D303FA02F5491B33
:1003C00004FA02F52844151EA2F10102F1DC30BD49
:1003D000202A04DB203A00FA02F100207047914005
:1003E000C2F1200320FA03F3194390407047202AFA
:1003F00004DB203A21FA02F00021704721FA02F3CF
:10040000D040C2F1200291400843194670470029AC
:10041000A8BF7047401C490008BF20F0010070478A
:1004200010B4B0FA80FC00FA0CF050EA010404BFEA
:1004300010BC704749B1CCF1200421FA04F411FA40
:100440000CF118BF012121430843A3EB0C01CB1D84
:100450004FEA00614FEA102042BF002010BC7047F5
:1004600000EBC35010440029A4BF10BC7047401CCF
:10047000490008BF20F0010010BC704710B5141EE1
:1004800073F1000408DA401C41F1000192185B414D
:100490001A4301D120F0010010BD2DE9F04D924624
:1004A0009B4611B1B1FA81F202E0B0FA80F220323B
:1004B0009046FFF78DFF04460F4640EA0A0041EAE6
:1004C0000B0153465A46084313D0114653EA010024
:1004D00019D0C8F140025046FFF789FF05460E4685
:1004E000504659464246FFF773FF084305D00120A6
:1004F00004E020463946BDE8F08D0020054346EA79
:10050000E0762C4337430A986305E40AA0EB080021
:100510000022FD0A44EA47540A3002D50020014671
:10052000E9E7010510196941DDE90845001969414C
:10053000BDE8F04DA2E72DE9FE4F804681EA0300B9
:10054000C00F0C46009021F0004123F00045B8EBAD
:100550000200A94105D24046214690461C460B4662
:10056000024623F00040104347D0270DC7F30A008E
:10057000C3F30A510290401A019040286BDAC3F38A
:10058000130040F4801B0098924620B10023D2EB68
:10059000030A63EB0B0B01985946C0F14002504629
:1005A000FFF716FF06460D4650465946019A00F0E1
:1005B0001DF910EB08006141002487EA115284EA1A
:1005C000E7731A4340D0009A62B3019A012A4FEAB6
:1005D000075215DC001B61EB02014FF0004202EAFA
:1005E0000752CDE90042001C41F5801132462B46EE
:1005F000FFF753FF03B0BDE8F08F40462146F9E70F
:10060000001B61EB0201001C41F5801300185B41E7
:100610002018A2F5001747EB030140EAD570B61980
:100620006D4111E06D084FEA360645EAC0754FEAA4
:100630000752001B61EB0201001C41F580114908C3
:100640004FEA30000019514132462B4603B0BDE855
:10065000F04FFFF713BF0098012240000023D0EBBA
:10066000020263EBE073009821464FEAE074B8EBB6
:10067000000061EB0401E9E783F000435BE781F0F0
:10068000004158E72DE9FE4F81EA030404F00044DD
:1006900021F0004100944FF0000B23F0004350EA9A
:1006A00001045ED052EA03045BD0C3F30A54C1F3E1
:1006B0000A552C44A4F2F3340194A0FB0254C1F374
:1006C000130141F48011C3F3130343F4801301FBBE
:1006D000024400FB034E840A970A44EA815447EA25
:1006E0008357A4FB076802958D0A05FB07854FEA2F
:1006F000932C04FB0C542705029D4FEA065847EA49
:100700001637B5EB08056EEB070C870E920E47EA1D
:10071000811742EA8312A7FB0201B6EB0B0164EBDF
:1007200000042B0D43EA0C335E1844EB1C50DA46F0
:100730005146E7FB0201C5F313044FEA0B3343EACA
:1007400014534FEA0432019C43EA0603A4F10C045B
:100750000294009CCDE900B4FFF79FFE03B0BDE812
:10076000F08F00200146F9E7C1F30A52C1F31301EB
:1007700040F2FF3341F480119A4202DA0020014630
:10078000704740F233439A42A2F2334202DC5242B3
:10079000FFF72DBEFFF71CBE30B5041E71F100043B
:1007A00004DB4FF00044404264EB0101141E73F17E
:1007B000000405DB1C464FF00043524263EB040388
:1007C000994208BF904230BD064C074D06E0E068F4
:1007D00040F0010394E8070098471034AC42F6D388
:1007E000FFF7D6FCB02F0008D02F0008202A06DB28
:1007F000CB17203A41FA02F043EAE07306E041FAEF
:1008000002F3D040C2F120029140084319467047DC
:1008100000BFFEE7704772B600BFFEE7014691F8E1
:100820003500022803D0802048650120704705204C
:1008300081F835000868006820F001000A6810603F
:100840000020F3E7F8B502460B46002500240020FF
:100850000021DCE0012606FA01F51E6806EA05041F
:10086000AC4273D15E68012E08D05E68022E05D0BE
:100870005E68112E02D05E68122E13D190684F0070
:100880000326BE40B0434F00DE68BE403043906058
:10089000506801268E40B0431E79C6F300168E4084
:1008A00030435060D0684F000326BE40B0434F0035
:1008B0009E68BE403043D0605E68022E02D05E6803
:1008C000122E13D1CF0802F1200656F827004E074A
:1008D000F70E0F26BE40B0434F07FF0E1E69BE4005
:1008E0003043CF0802F1200646F8270010684F0079
:1008F0000326BE40B0431E7906F003064F00BE40FB
:10090000304310605E6806F08056B6F1805F7DD19E
:1009100000BF00260096404E366846F480463E4FA3
:100920003E603E46366806F48046009600BF00BF33
:100930003A4E8F0856F827008E07370F0F26BE4015
:10094000B043374EB24202D1002624E05EE0354E7D
:10095000B24201D101261EE0334EB24201D102263D
:1009600019E0324EB24201D1032614E0304EB242B9
:1009700001D104260FE02F4EB24201D105260AE034
:100980002D4EB24201D1062605E02C4EB24201D1D5
:10099000072600E008268F073F0FBE4030431F4E5A
:1009A0008F0846F82700264E3068A0435E6806F49C
:1009B0008036B6F5803F00D12043214E3060361D91
:1009C0003068A0435E6806F40036B6F5003F00D1FB
:1009D00020431B4E361D3060361D3068A0435E68D4
:1009E00006F48016B6F5801F00D12043144E083659
:1009F0003060361D3068A0435E6806F40016B6F518
:100A0000001F00D120430E4E0C363060491C1029C7
:100A1000FFF420AFF8BD0000443802400838014020
:100A2000000002400004024000080240000C0240A6
:100A3000001002400014024000180240001C024056
:100A4000003C01400AB1816101E00B048361704701
:100A50000148006870470000240000200348006837
:100A600003490978084401490860704724000020C0
:100A70002C00002010B50D48006840F400700B49B0
:100A800008600846006840F4806008600846006816
:100A900040F480700860032000F0AAF8002000F005
:100AA00007F800F02BF8002010BD0000003C0240C9
:100AB00070B504460E4800784FF47A71B1FBF0F03F
:100AC0000C490968B1FBF0F5284600F0E9FE08B1D1
:100AD000012070BD102C07D200222146501E00F0CC
:100AE00049F80548046001E00120F2E70020F0E742
:100AF0002C000020300000202800002008B500BF96
:100B0000002000901248006840F4804010490860BE
:100B10000846006800F48040009000BF00BF00BF9E
:100B200000200090081F006840F08050091F0860F6
:100B30000846006800F08050009000BF00BF00220F
:100B40001146052000F016F8052000F003F808BD56
:100B50004438024001460846002809DB00F01F0324
:100B600001229A4043099B0003F1E023C3F80021CE
:100B700000BF70472DE9F05F80460D4616460027FE
:100B800001F06AFD074639462A46334601F0070060
:100B9000C0F1070ABAF1040F02D94FF0040A01E0CC
:100BA000C0F1070AD14600F1040ABAF1070F02D2D8
:100BB0004FF0000A01E0A0F1030AD4464FF0010A09
:100BC0000AFA09FAAAF1010A0AEA020A0AFA0CFA6E
:100BD0004FF0010B0BFA0CFBABF1010B0BEA030B13
:100BE0004AEA0B042146404601F03EFDBDE8F09F75
:100BF00000BF00F00702064B19684FF6FF031940CB
:100C0000044B0B4343EA0221014B196000BF7047BC
:100C10000CED00E00000FA057047000070B50446D6
:100C20000D460CB9012070BD5848006800F00F0057
:100C3000A84209D255490D700846006800F00F001F
:100C4000A84201D00120EEE7207800F0020002283F
:100C50001DD1207800F00400042805D14C4800681C
:100C600040F4E0504A490860207800F00800082865
:100C700005D14748006840F4604045490860444851
:100C8000006820F0F000A16808434149086020781E
:100C900000F00100A8B36068012807D13C4808387B
:100CA0000068C0F34040B8B90120BCE76068022882
:100CB00002D06068032807D1354808380068C0F3BF
:100CC000406048B90120AEE7314808380068C0F3F9
:100CD000400008B90120A6E72D48006820F0030075
:100CE000616808432A490860FFF7B2FE064609E03A
:100CF000FFF7AEFE801B41F28831884202D9032003
:100D000091E707E02248006800F00C006168B0EB52
:100D1000810FEDD11D48006800F00F00A84209D9ED
:100D20001A490D700846006800F00F00A84201D073
:100D3000012078E7207800F00400042807D1144847
:100D4000006820F4E050E168084311490860207809
:100D500000F00800082808D10D48006820F4604021
:100D6000216940EAC1000A49086000F01FF80849FB
:100D70000968C1F30311074A515CC840064908607D
:100D800006480068FFF794FE00204CE7003C024054
:100D900008380240982F000830000020280000206A
:100DA00001200149C8647047000047422DE9F0471F
:100DB000002400250026A1462548006800F00C000C
:100DC00020B1042805D008283AD105E0DFF8849046
:100DD00039E0DFF8849036E01D48001F006800F01D
:100DE0003F041B48001F006800F4800078B11A48D7
:100DF0001749091F0968C1F38811A0FB017001465A
:100E0000224600233846FFF7DBF905460EE011487D
:100E10000F49091F0968C1F38811A0FB0170014641
:100E2000224600233846FFF7CBF905460848001F45
:100E30000068C0F30140401C4600B5FBF6F902E033
:100E4000DFF8109000BF00BF4846BDE8F087000003
:100E5000083802400024F40040787D0110B50648AF
:100E6000006800F08000802805D1FFF7D5FE8020C3
:100E70000149891C087010BD0C380240F8B50446C1
:100E80000CB90120F8BD207800F00100002874D0D2
:100E9000F948006800F00C0004280DD0F6480068FE
:100EA00000F00C00082813D1F348001F006800F47C
:100EB0008000B0F5800F0BD1EF4808380068C0F310
:100EC0004040002859D06068002856D10120D9E759
:100ED00000BF6068B0F5803F08D1E7480838006877
:100EE00040F48030E449083908601EE06068B0F5DD
:100EF000A02F0DD1E0480838006840F48020DE497A
:100F0000083908600846006840F4803008600CE04A
:100F1000D9480838006820F48030D749083908607B
:100F20000846006820F48020086000BF606890B127
:100F3000FFF78EFD054606E0FFF78AFD401B64289B
:100F400001D903209EE7CC4808380068C0F3404030
:100F50000028F1D011E0FFF77BFD054606E0FFF722
:100F600077FD401B642801D903208BE7C24808386D
:100F70000068C0F340400028F1D1207800F0020062
:100F800002285FD1BC48006800F00C0058B1BA4894
:100F9000006800F00C0008281CD1B748001F00684A
:100FA00000F48000B0B9B44808380068C0F34000CD
:100FB00020B1E068012801D0012063E7AE4808387D
:100FC000006820F0F800216940EAC100AA49083908
:100FD000086037E0E06800B30120A8490860FFF727
:100FE00037FD054606E0FFF733FD401B022801D917
:100FF000032047E7A04808380068C0F340000028F5
:10100000F1D09D480838006820F0F800216940EAD6
:10101000C10099490839086014E000209749086028
:10102000FFF716FD054606E0FFF712FD401B0228FC
:1010300001D9032026E7904808380068C0F3400033
:101040000028F1D1207800F0080008282CD1606930
:10105000A8B101208A490860FFF7FAFC054606E0BE
:10106000FFF7F6FC401B022801D903200AE782485B
:101070006C300068C0F340000028F1D014E000207C
:101080007F490860FFF7E4FC054606E0FFF7E0FC57
:10109000401B022801D90320F4E677486C30006831
:1010A000C0F340000028F1D1207800F004000428AB
:1010B00070D1002770483830006800F0805090B937
:1010C00000BF002000906C483830006840F080502D
:1010D0006949383108600846006800F08050009087
:1010E00000BF00BF01276748006800F48070B0B9F6
:1010F0006448006840F4807062490860FFF7A8FC0B
:10110000054606E0FFF7A4FC401B022801D9032096
:10111000B8E65C48006800F480700028F2D000BF98
:10112000A068012808D154486830006840F00100E8
:101130005149683108601DE0A06805280DD14E486E
:101140006830006840F004004B4968310860084688
:10115000006840F0010008600CE047486830006813
:1011600020F001004449683108600846006820F01A
:101170000400086000BFA068A8B1FFF769FC05463D
:1011800009E0FFF765FC401B41F28831884202D933
:10119000032077E626E0384868300068C0F3400056
:1011A0000028EED013E0FFF753FC054608E0FFF7F8
:1011B0004FFC401B41F28831884201D9032061E68F
:1011C0002D4868300068C0F340000028EFD1012F9F
:1011D00007D129483830006820F08050264938313E
:1011E000086000BFA069002845D02348006800F0CF
:1011F0000C0008285DD0A069022845D100201F49B5
:101200000866FFF725FC054606E0FFF721FC401BBA
:10121000022801D9032035E6174808380068C0F3D2
:1012200040600028F1D1D4E907010843616A40EA2F
:1012300081110122A06AC2EB500041EA00412C203A
:10124000005D41EA00600C49091F086001200B495C
:101250000866FFF7FDFB054606E0FFF7F9FB401BBC
:10126000022801D903200DE6034808380068C0F3BE
:1012700040600028F1D03FE00838024000004742BB
:10128000800E47420070004000201C490866FFF7AE
:10129000DFFB054606E0FFF7DBFB401B022801D918
:1012A0000320EFE516480068C0F340600028F2D143
:1012B00022E0A069012800D1E4E51148001D06687C
:1012C00006F48001E069814214D106F03F01206AF2
:1012D00081420FD147F6C0703040616A884209D11F
:1012E00006F44031A06A814204D106F07061E06AE0
:1012F000814201D00120C5E50020C3E5000047423E
:101300000038024070470000F8B50446206846687F
:1013100020688568C5F3801048B905F0010030B138
:10132000C6F3801018B12046216C8847F8BDC5F37C
:10133000400030B1C6F3C01018B12046616C884738
:10134000F4E7C5F3401030B9C5F3801018B9C5F300
:10135000002000287CD0C6F3401000287DD0C5F3C3
:101360008010F0B194F8510003280ED0606D40F069
:101370000400606500BF002000902068C0680090F5
:1013800020688068009000BF0BE000BF0020009044
:101390002068C068009020688068009000BF00BF8F
:1013A000C4E7C5F3401088B1606D40F0010060658E
:1013B00000BF0020009020688068009020680068CE
:1013C00020F040002168086000BF00BFC5F3002086
:1013D00058B1606D40F00800606500BF00200090CB
:1013E00020688068009000BF00BF606D78B32068FF
:1013F000406820F0E00021684860012084F8510036
:1014000006F00200022802D006F0010008B32068AE
:10141000406820F0030021684860E06C50B110483B
:10142000E16C0865E06CFFF7F9F918B1606D40F008
:1014300040006065A06C50B10948A16C0865A06CC3
:10144000FFF7ECF918B1606D40F04000606503E013
:1014500003E02046FFF756FF68E700BF66E700009D
:101460003D23000810B504460CB9012010BD606A88
:1014700000B900BF0021A16294F8510028B90020F2
:1014800084F85000204600F033F8022084F8510020
:101490002068006820F0400021680860D4E901015C
:1014A0000843E16808432169084361690843218BC7
:1014B00001F400710843E1690843216A0843A16A05
:1014C0000843216808600421A06901EA1040616AAC
:1014D0000843216848602068C06920F400602168E2
:1014E000C86100206065012084F851000020BDE73C
:1014F00010B586B00446142101A8FEF799FE1F49D5
:101500002068884237D100BF002000901C48006846
:1015100040F480501A4908600846006800F4805082
:10152000009000BF00BF00BF002000901448143896
:10153000006840F00100124914390860084600684C
:1015400000F00100009000BF00BFE02001900220E9
:10155000029000200390032004900520059001A92B
:101560000848FFF76FF9002211462320FFF702FB1E
:101570002320FFF7EFFA06B010BD00000030014055
:10158000443802400000024070470000F0B50446B5
:10159000002700BF94F85000012801D10220F0BDBF
:1015A000012084F8500000BF94F851506668012D66
:1015B00008D0B6F5827F03D1A06808B9042D01D008
:1015C000022735E009B102B10BB9012730E094F8E8
:1015D0005100042802D0052084F8510000206065E5
:1015E0002163A386E386A263A387E387E06820B133
:1015F000134820641348606403E0134820641348D0
:1016000060642068406840F0E000D4F800C0CCF886
:1016100004002068006800F04000402807D02068DF
:10162000006840F04000D4F800C0CCF8000000BFD3
:1016300000BF002084F8500000BF3846AFE700002C
:10164000B121000819220008E52100084D220008F8
:1016500010B52DED048B82B004467F48844274D1CE
:10166000012208217D48FFF7EDF97D480068082830
:101670006CD2DFE800F0E7041D313E4F92A37948B9
:1016800000783F2813D176480068401C74490860F0
:10169000002208217148FFF7D5F942F2630001905A
:1016A0000123704A01A96C48FFF770FF00BFCDE02D
:1016B0006B480068401C6A4908600022082167489E
:1016C000FFF7C0F94FF4204001900123654A01A9BA
:1016D0006148FFF75BFFB9E062480078632807D1F3
:1016E00043F69821604800F082FC604800F0F4F86E
:1016F000ACE0002208215948FFF7A4F959480088B6
:101700004FF6FF7101EA002059490880574800F060
:10171000E3F89BE0002208215048FFF793F9544872
:1017200000885049098808445149088008460088C3
:1017300000F4004058B1084600884FF6FF71081ABF
:10174000C0F1FF304B49086005E080E07AE048488E
:1017500000884849086047480068FEF7E3FD41EC0F
:10176000190B9FED450B53EC102BFEF76CFD41EC74
:10177000180BFEF7FBFD4249086008460068FEF7BB
:10178000E2FD41EC180B53EC182B3EA13F4800F052
:101790004FFF364800F0A0F858E0002208212F48FB
:1017A000FFF750F92F4800884FF6FF7101EA00203B
:1017B000374908802D4800F08FF847E000220821C3
:1017C0002648FFF73FF9324800882649098808442F
:1017D0002F4908800846008800F4004048B10846B8
:1017E00000884FF6FF71081AC0F1FF3029490860E0
:1017F00003E0274800882749086026480068FEF76C
:1018000091FD41EC190B9FED1C0B53EC102BFEF7D7
:101810001AFD41EC180BFEF7A9FD1F4908600846A8
:101820000068FEF790FD41EC180B53EC182B15A146
:101830001A4800F0FDFE0320094908600B4800F03B
:101840004BF803E000200649086000BF00BF02B06B
:10185000BDEC048B10BD00003400002000100240DD
:10186000100000201A000020000C00408C00002016
:101870000C00002004000020C3F5285C8FEA6640BD
:101880001C000020252E326600000000CC00002045
:101890000E0000200800002020000020E0000020B2
:1018A00070B504462546681EB0F1807F01D3012043
:1018B0000FE0681E4FF0E02148610F214FF0FF302C
:1018C00000F0D2FE00204FF0E0218861072008617F
:1018D000002070BD7047704701460868C06840F03E
:1018E00001000B68D8600868806800F00702062ACB
:1018F00005D00868006840F001000B6818600020FF
:101900007047704710B5044620680069C0F3400076
:10191000D8B12068C068C0F34000B0B16FF00200D9
:1019200021680861012020772068806900F00300A9
:1019300018B12046FFF7E5FF05E0204600F0ADF8BE
:10194000204600F0F5F80020207720680069C0F3F9
:101950008000D8B12068C068C0F38000B0B16FF0DB
:10196000040021680861022020772068806900F463
:10197000407018B12046FFF7C4FF05E0204600F094
:101980008CF8204600F0D4F8002020772068006909
:10199000C0F3C000D8B12068C068C0F3C000B0B1C7
:1019A0006FF0080021680861042020772068C06972
:1019B00000F0030018B12046FFF7A3FF05E0204622
:1019C00000F06BF8204600F0B3F800202077206884
:1019D0000069C0F30010D8B12068C068C0F30010DF
:1019E000B0B16FF0100021680861082020772068EE
:1019F000C06900F4407018B12046FFF782FF05E08F
:101A0000204600F04AF8204600F092F800202077A7
:101A10002068006900F0010058B12068C06800F03B
:101A2000010030B16FF0010021680861204600F02C
:101A300081F820680069C0F3C01058B12068C06800
:101A4000C0F3C01030B16FF08000216808612046FB
:101A5000FFF740FF20680069C0F3801058B120688C
:101A6000C068C0F3801030B16FF040002168086199
:101A7000204600F093FA20680069C0F3401058B186
:101A80002068C068C0F3401030B16FF020002168BA
:101A900008612046FFF71FFF10BD704770B5044670
:101AA0000D460CB9012070BD94F83D0028B9002006
:101AB00084F83C00204600F017F8022084F83D002E
:101AC000211D206800F046FD2068006820F0080015
:101AD00021680860206800682843216808600120A8
:101AE00084F83D000020DEE738B504460E49206842
:101AF000884217D100BF002000900C48006840F0D9
:101B000008000A4908600846006800F008000090D4
:101B100000BF00BF002211463220FFF72BF8322011
:101B2000FFF718F838BD0000000C004040380240B4
:101B30007047000038B50546FB48854272D1FB4826
:101B4000006817286FD2DFE800F06E0C233148568A
:101B50006F7D94A2B3C7DBF9F7F6F5F4F3F2F1F079
:101B6000EF00F2480068401CF049086000213C206A
:101B700000F018FA01221021ED48FEF763FF4FF440
:101B8000FA61EC4800F033FAE748FFF7A5FEFCE104
:101B900000221021E648FEF755FFE4480068401C8B
:101BA000E2490860E048FFF797FEEEE1DF48006891
:101BB000401CDE49086000210F2000F0F3F90122EB
:101BC0001021DB48FEF73EFF4FF4FA61D94800F0E0
:101BD0000EFAD548FFF780FED7E100221021D44845
:101BE000FEF730FFD1480068401CD0490860CE485D
:101BF000FFF772FEC9E1CD480068401CCB49086080
:101C00000021012000F0CEF901221021C848FEF782
:101C100019FF4FF4FA61C74800F0E9F9C248FFF72D
:101C20005BFEB2E1B2E1ACE100221021C048FEF758
:101C300009FFBE480068401CBC490860BA48FFF76D
:101C40004BFEA2E1B9480068401CB8490860002179
:101C5000062000F0A7F901221021B548FEF7F2FE98
:101C60004FF4FA61B34800F0C2F9AF48FFF734FE11
:101C70008BE100221021AE48FEF7E4FEAB4800687D
:101C8000401CAA490860A848FFF726FE7DE1AA4843
:101C90000068401CA84908600123A84AA849A9482F
:101CA000FFF774FCA1480068401CA04908606CE183
:101CB0004FF428400090A0480068401C9E490860EE
:101CC00001239E4A69469F48FFF760FC97480068D9
:101CD000401C9649086058E14FF42940009096480E
:101CE0000068401C944908600123944A694695485D
:101CF000FFF74CFC8D480068401C8C49086044E1AB
:101D00004FF42A4000908C480068401C8A490860C3
:101D100001238A4A69468B48FFF738FC83480068EC
:101D2000401C8249086030E124E115E1C4E0B5E0DF
:101D300090E081E048E039E014E0FFE74FF42B4009
:101D400000907D480068401C7B49086001237B4A65
:101D500069467C48FFF71AFC74480068401C7349C8
:101D6000086012E1784800F03DF9044604F47F442D
:101D700044F001042146744800F037F90022202184
:101D80006B48FEF75FFE012210216948FEF75AFEFC
:101D90006E480068401C6D49086064480068401C3B
:101DA000624908606048FFF797FDEEE000221021CD
:101DB0005F48FEF747FE5D480068401C5B490860CD
:101DC0005948FFF789FDE0E0614860490968405CD7
:101DD00058B900205D49086054480068801C534988
:101DE00008605148FFF778FDCFE0574800F0FAF857
:101DF000044604F47F44564854490968405C04434F
:101E00002146514800F0F1F8012220214848FEF710
:101E100019FE012210214648FEF714FE4B480068C7
:101E2000401C4A49086041480068401C3F4908601E
:101E30003D48FFF751FDA8E0002210213C48FEF785
:101E400001FE3A480068401E384908603648FFF7EE
:101E500043FD9AE03C4800F0C5F8044604F47F4492
:101E600044F0C0042146384800F0BFF80022202189
:101E70002F48FEF7E7FD012210212D48FEF7E2FD75
:101E800032480068401C3149086028480068401CFE
:101E9000264908602448FFF71FFD76E00022102144
:101EA0002348FEF7CFFD21480068401C1F49086009
:101EB0001D48FFF711FD68E0264824490968405C89
:101EC00058B900202149086018480068801C17494B
:101ED00008601548FFF700FD57E01B4800F082F846
:101EE000044604F47F441B4818490968405C0443D5
:101EF0002146154800F079F8012220210C48FEF710
:101F0000A1FD012210210A48FEF79CFD0F48006840
:101F1000401C0E49086005480068401C03490860E1
:101F20000148FFF7D9FC30E08C00002014000020AD
:101F300000040240000C0040100000201A000020A5
:101F40001800002034000020000C02400000002097
:101F5000CC000020E0000020002210210C48FEF7F9
:101F600071FD0C480068401E0A4908600A48FFF7E6
:101F7000B3FC0AE00A20074908600748FFF7ACFCF9
:101F800003E000200349086000BF00BF38BD000027
:101F900000040240140000208C000020704700BFA5
:101FA000FEE7000070B505460E462EB9002220213E
:101FB0000A48FEF747FD04E0012220210748FEF70A
:101FC00041FD074800F00EF8044604F47F442C431A
:101FD0002146034800F009F870BD000000040240EB
:101FE000000C024001464869704741617047C16278
:101FF0007047000000B587B0142102A8FEF718F959
:1020000000BF002001903E48006840F010003C49AD
:1020100008600846006800F01000019000BF00BF93
:1020200000BF002001900846006840F08000086072
:102030000846006800F08000019000BF00BF00BFAC
:10204000002001900846006840F001000860084642
:10205000006800F00100019000BF00BF00BF002039
:1020600001900846006840F00800086008460068D3
:1020700000F00800019000BF00BF00BF00200190E9
:102080000846006840F0020008600846006800F05A
:102090000200019000BF00BF002208211948FEF78E
:1020A000D1FC0022FF211848FEF7CCFC0022302191
:1020B0001648FEF7C7FC082002900120039000207C
:1020C0000490059002A90F48FEF7BCFBFF20029088
:1020D00001200390002004900320059002A90A48E3
:1020E000FEF7B0FB30200290012003900020049006
:1020F000059002A90548FEF7A5FB07B000BD00004A
:102100003038024000100240000C0240000402403F
:1021100010B51048104908604FF4827048600021E3
:102120000D4881604FF40061C1600021016141618F
:102130004FF4007181611821C16100210162416287
:1021400081620A21C162FFF78DF908B1FEF763FBD6
:1021500010BD0000003001403400002010B50A48D6
:102160000A490860532048600021084881604CF209
:102170005031C1600021016181610821FFF78EFCAF
:1021800008B1FEF748FB10BD000C00408C00002099
:1021900000BFFEE7FEF762FE00BFFEE77047704734
:1021A00010B50248FFF7B0F810BD00003400002061
:1021B00010B504462068C068A16B0880A06B801C25
:1021C000A063E08F401EE087E08F50B92068406830
:1021D00020F0400021684860E08E10B9204600F0F1
:1021E0004FF810BD10B504462068007BA16B087045
:1021F000A06B401CA063E08F401EE087E08F50B9C9
:102200002068406820F0600021684860E08E10B9C6
:10221000204600F035F810BD10B50446206B00884C
:102220002168C860206B801C2063E08E401EE08621
:10223000E08E50B92068406820F080002168486036
:10224000E08F10B9204600F01BF810BD10B5044611
:10225000206B007821680873206B401C2063E08E9F
:10226000401EE086E08E50B92068406820F0800073
:1022700021684860E08F10B9204600F001F810BDD9
:102280007CB504462C4800681821B0FBF1F04FF4EF
:102290007A71B0FBF1F0642148430190FEF7D8FB5E
:1022A00005462068406820F020002168486000BF93
:1022B000019820B9606D40F02000606508E0019849
:1022C000401E01902068806800F002000028EFD0D6
:1022D00000BF2A466421204600F03AF818B1606D2C
:1022E00040F020006065A06850B900BF0020009059
:1022F0002068C068009020688068009000BF00BF20
:10230000606D88B994F85100042806D1012084F842
:1023100051002046FFF738F90CE0012084F8510005
:102320002046FFF795F905E0012084F8510020468A
:10233000FEF7E8FF7CBD00003000002070B50546C8
:10234000AC6B0020E087E0862046FEF7DBFF70BD27
:102350007CB504460D461646164800681821B0FBA9
:10236000F1F01549B0FBF1F04FF47A714843019058
:102370006068B0F5827F0DD12B4600228021204677
:10238000009600F01BF898B1606D40F02000606589
:1023900003207CBD00BF019800B908E00198401EF1
:1023A000019020688068C0F3C0100028F3D100BFFE
:1023B0000020EEE73000002040420F002DE9F04100
:1023C00004460E4617461D46DDF818803EE0681CA0
:1023D000D8B3FEF73DFBA0EB0800A84200D2A5BB96
:1023E0002068406820F0E000216848606068B0F52F
:1023F000827F0DD1A068B0F5004F03D0A068B0F582
:10240000806F05D12068006820F0400021680860D6
:10241000A06AB0F5005F0DD100BF2068006820F40D
:102420000050216808602068006840F4005021686E
:10243000086000BF012084F8510000BF002084F82C
:10244000500000BF0320BDE8F081FFE720688068EE
:102450003040B04201D1012000E00020B842B6D1A6
:102460000020F0E7704710B5FEF7F8FA10BD000045
:1024700000B593B0302107A8FDF7DAFE142102A8B9
:10248000FDF7D6FE00BF002001902548006840F00F
:102490008050234908600846006800F08050019091
:1024A00000BF00BF00BF002001901E48006840F43C
:1024B00080401C4908600846006800F48040019094
:1024C00000BF00BF012007900004089002200D907B
:1024D00041050E9119210F914FF4A871109102211D
:1024E00011910421129107A8FEF7C8FC08B1FEF76C
:1024F00092F90F20029002200390002004904FF4E4
:10250000A05005904FF480500690052102A8FEF7D8
:1025100085FB08B1FEF77FF9FEF742FC13B000BD62
:1025200040380240007000400548006840F47000E8
:10253000034908604FF00060014980390860704726
:1025400088ED00E010B50248FFF7DCF910BD00008F
:102550008C00002010B50268294B98420ED0B0F1D3
:10256000804F0BD0274B984208D0274B984205D07C
:10257000264B984202D0264B984203D122F070029B
:102580004B681A431E4B984220D0B0F1804F1DD0AB
:102590001C4B98421AD01C4B984217D01B4B9842A8
:1025A00014D01B4B984211D01A4B98420ED01A4BA4
:1025B00098420BD0194B984208D0194B984205D03D
:1025C000184B984202D0184B984203D122F4407223
:1025D000CB681A4322F080034C6943EA040202608C
:1025E0008B68C3620B688362054B984202D0084B2C
:1025F000984201D10B6903630123436110BD0000C0
:10260000000001400004004000080040000C0040B1
:1026100000040140004001400044014000480140E6
:1026200000180040001C00400020004000BFFEE7F2
:102630000FB4084B10B504A902AA039800F0FAF8E9
:10264000044602A9002000F08CFC204610BC5DF876
:1026500014FB0000632F000802480068C0F302204A
:10266000704700000CED00E010B5002804DB0A07FD
:10267000130E054A135406E00A07140E034A00F02D
:102680000F031B1FD45410BD00E400E018ED00E060
:1026900002E008C8121F08C1002AFAD1704770472B
:1026A000002001E001C1121F002AFBD17047000089
:1026B0002DE9FF5F82B00021DDE90430020DDDF875
:1026C00040B0034318D044F61050A2F2FF32424308
:1026D0001514119801281FD0A5EB0B00401C5FEAD0
:1026E000000A4FF000064E4FDFF83891B0465046D2
:1026F00015D5CAF1000413E0119801244AA301285A
:1027000001D16FEA0B010298119AC0E90031C0E9CA
:10271000024206B0BDE8F09FCBF10000DFE70446BF
:102720000021404A491842EB0450CDE9001012E064
:10273000E00707D032463B4640464946FDF7A2FF38
:102740008046894632463B4610461946FDF79AFFB9
:1027500006460F466410002CEAD1DDE90401DDE9EC
:102760000023BAF1000F06DAFDF78CFF42464B4614
:10277000FDF788FF05E0FDF766FD42464B46FDF795
:1027800062FD04460E460022284BFEF705F803D8EA
:102790004FF0FF30014607E00022254B204631462E
:1027A000FDF7C9FEFDF7E0FF102409E0002C0ADB6D
:1027B0000A220023FDF704FD039B30321A55641EE4
:1027C00050EA0102F2D1641C039AC4F111031444CB
:1027D000119A012A03D0012208430DD10AE00843CF
:1027E00004D000204FF0110B119072E7A3EB0B0502
:1027F0006D1E0DE05B4504DD4FF0000205F10105A3
:1028000004E003DA4FF00002A5F10105002AECD044
:1028100002981199C0E90231C0E9004579E700004A
:10282000000014400000F03F300000000000F043C2
:102830000000E03F2DE9FF4F95B09B4689460646D4
:1028400000250FE2252877D100242746F84A0121E8
:10285000059400E0044316F8013F203B01FA03F021
:102860001042F7D130782A2811D06FF02F0330783A
:10287000A0F13002092A16D8059A44F0020402EBAE
:10288000820203EB42021044761C0590EFE759F8F0
:10289000042B0592002A03DA504244F400540590B8
:1028A00044F00204761C30782E2816D116F8010F59
:1028B00044F004042A280DD06FF02F023078A0F1E4
:1028C0003003092B09D807EB870302EB4303C71832
:1028D000761CF3E759F8047B761C30786C280FD00F
:1028E00006DC4C2817D068280DD06A2814D104E0E3
:1028F000742810D07A280FD10DE044F400140AE0B7
:1029000044F4801401E044F440147278824202D10D
:1029100004F58014761C761C307866280BD013DC06
:10292000582877D009DC002875D04528F6D04628ED
:10293000F4D047281AD19DE118E0632835D06428E7
:1029400079D0652812D195E1702873D008DC67280A
:10295000F1D069286FD06E280DD06F2806D1B5E070
:1029600073282CD0752875D0782874D05A461799BA
:1029700090476D1C75E1C4F30250022809D003286A
:102980000DD0D9F8001004280DD00D6009F104090C
:1029900067E1D9F80010EA17C1E90052F6E7D9F863
:1029A00000100D80F2E70D70F0E719F8041B8DF8A8
:1029B000001000208DF80100EA46012003E059F8DC
:1029C00004AB4FF0FF3061074FF0000102D40DE07F
:1029D00008F101018846B9420FDA8045F8DB1AF8A0
:1029E00008100029F4D108E008F10101884681426D
:1029F000FADB1AF808100029F6D105985B46A0EB1F
:102A0000080721463846179A00F094FA284400EB4C
:102A1000080507E04DE029E10DE01AF8010B5A46E0
:102A200017999047B8F10108F7D25B46214638461E
:102A3000179A13E142E00A220092C4F302524FF0C7
:102A4000000A022A08D059F804CB032A4FEAEC7195
:102A50000AD00DE029E02AE009F1070121F0070280
:102A6000F2E802C1914609E00FFA8CFC4FEAEC71E2
:102A7000042A03D14FFA8CFC4FEAEC71002907DAE3
:102A80000A460021DCF1000C61EB02012D2202E07C
:102A9000220504D52B228DF80420012203E0E20751
:102AA00001D02022F7E7904659E00A2102E01022E7
:102AB0000DE010214FF0000A00910BE010224FF0C2
:102AC000000A44F004040827009203E008224FF0B3
:102AD000000A0092C4F30252022A05D059F804CB2E
:102AE0000021032A08D009E009F1070121F00702BB
:102AF000F2E802C1914605E01FFA8CFC042A01D1DC
:102B00000CF0FF0C4FF00008220728D5702806D0E3
:102B1000009B83F0100353EA0A0305D00EE0402225
:102B20008DF80420012208E05CEA010206D0302280
:102B30008DF804208DF8050002229046009B83F05A
:102B4000080353EA0A030AD15CEA010201D16207D1
:102B500005D530228DF804204FF001087F1E58283B
:102B600004D034A003900EA802900DE036A0F9E73F
:102B700053466046009AFDF723FB84460398825C27
:102B80000298401E029002705CEA0100F0D10298A7
:102B900006A9081A00F1200A600702D524F480343F
:102BA00000E00127574502DDA7EB0A0000E0002006
:102BB00000EB0A01009005984144401A0590E0039B
:102BC00006D45B462146179A059800F0B3F90544F0
:102BD000002706E001A85A46C05D179990476D1C72
:102BE0007F1C4745F6DBE0030CD55B462146179A70
:102BF000059800F09FF9054404E030205A461799E3
:102C000090476D1C0099481E00900029F5DC08E0F3
:102C1000029802995A460078491C029117999047E8
:102C20006D1CBAF10001AAF1010AF1DC65E10000B6
:102C30000928010030313233343536373839616292
:102C40006364656600000000303132333435363756
:102C500038394142434445460000000000F058F92D
:102C60000544761C307800287FF4ECAD19B0284676
:102C7000BDE8F08F620700D4062709F1070222F0B1
:102C8000070CFCE80223E14603F000485FEA080C69
:102C900002D00FF2702C0DE05FEA045C02D50FF257
:102CA000682C07E05FEAC47C02D00FF2602C01E0E0
:102CB000AFF2700C4FF0FF3823F00043CDF850C056
:102CC00065280CD006DC452809D046281DD04728A9
:102CD0003DD13DE0662818D067287ED138E000213C
:102CE000112F01DB112000E0781CCDE9000106A9BD
:102CF0000EA8FFF7DDFCDDE90F010E9A039100211C
:102D0000009207F1010A04914DE04FF00040009756
:102D1000CDE9011006A90EA8FFF7CAFCDDE90F02F4
:102D200003920E9B11990022DDF80CA000930492EF
:102D300011B9791C00EB010AB7EB0A0004D4C0F109
:102D4000FF3007F1010A0490AAEB0700019044E06C
:102D5000012F00DA01270021112F01DD112000E0F1
:102D60003846CDE9000106A90EA8FFF7A1FCDDE970
:102D70000F010E9A0391002104910092BA46210797
:102D80000CD40399514500DA8A46BAF1010F05DDEA
:102D9000009AAAF10101515C302908D0B84202DA48
:102DA00010F1040F06DA0121CDE9011015E0AAF1B6
:102DB0000101E9E7002805DC049901440491AAEB2C
:102DC000000102E0411C514500DD8A460499401A89
:102DD000401C01904FF000400290200704D401985D
:102DE000504501DBCDF8048000208DF84F0002989B
:102DF0000DF14F07B0F1004F25D02B200E90029817
:102E00004FF0020800280CDA404202902D200E906C
:102E100007E00A210298FDF7C5FA3031029007F861
:102E2000011DB8F10001A8F10108F2DC02980028A8
:102E3000EFD1791E0E980870307800F0200040F035
:102E4000450007F8020D12A8C01B00F107081498EE
:102E5000007800B1012000EB0A01019801EBE0715C
:102E600005984144401A401E0590E00306D45B4695
:102E70002146179A059800F05DF8054414980078EB
:102E800018B15A46179990476D1CE00324D55B464C
:102E90002146179A059800F04DF805441CE0049867
:102EA000002807DBDDE90301884203DD0098405C70
:102EB000179901E0179930205A469047049805F178
:102EC0000105401C04900198401E019004D12E2061
:102ED0005A46179990476D1CBAF10001AAF1010AF0
:102EE000DDDC05E017F8010B5A46179990476D1C79
:102EF000B8F10001A8F10108F4DC5B462146179AFD
:102F00000598ABE62D0000002B000000200000001B
:102F10002DE9F041044600251E461746880404D4D6
:102F200005E039462020B0476D1C641EF9D52846BF
:102F3000BDE8F0812DE9F041044600251E4690468B
:102F4000C80301D5302700E02027880404D505E018
:102F500041463846B0476D1C641EF9D52846BDE889
:102F6000F0810A68531C0B6010707047FDF782FDFA
:102F7000FFF77EFAFFF73EF8FFF7CAF8FFF7EEF823
:102F80000120034908600348FEF7A6FC00BFFEE7E6
:102F9000140000208C000020000000000000000051
:102FA00001020304060708090000000001020304EF
:102FB000D02F0008000000203400000090260008F8
:102FC0000430000834000020C4040000A0260008DB
:102FD00000000000000000000000000000000000F1
:102FE0000000000000000000008F00000000000052
:102FF00000000000000000001000000001000000C0
:043000000024F400B4
:040000050800018965
:00000001FF
