:020000040800F2
:10000000800400209D0100084B140008E71200083E
:100010004914000811080008DD1500080000000060
:100020000000000000000000000000003D15000876
:1000300013080008000000004D1400083F150008D8
:10004000B7010008B7010008B7010008B7010008B0
:10005000B7010008B7010008B7010008B7010008A0
:10006000B7010008B7010008B7010008B701000890
:10007000B7010008B7010008B7010008B701000880
:10008000B7010008B7010008B7010008B701000870
:10009000B7010008B7010008B7010008B701000860
:1000A000B7010008B7010008B7010008B701000850
:1000B000B7010008B7010008B7010008B701000840
:1000C000B7010008B7010008B7010008B701000830
:1000D000B7010008B7010008B7010008B701000820
:1000E000B7010008B7010008B7010008B701000810
:1000F000B7010008B7010008B7010008B701000800
:10010000B7010008B7010008B7010008B7010008EF
:10011000B7010008B7010008B7010008B7010008DF
:10012000B7010008B7010008B7010008B7010008CF
:10013000B7010008B7010008B7010008B7010008BF
:10014000B7010008B7010008B7010008B7010008AF
:10015000B7010008B7010008B7010008B70100089F
:10016000B7010008B7010008B7010008B70100088F
:10017000B7010008B7010008B7010008000000003F
:10018000B7010008B7010008DFF80CD000F01CFB35
:1001900000480047051F00088004002006488047EB
:1001A00006480047FEE7FEE7FEE7FEE7FEE7FEE75C
:1001B000FEE7FEE7FEE7FEE7C1150008890100083B
:1001C0002DE9F05F0546002092469B46884606468C
:1001D000814640241BE0284641464746224600F01F
:1001E00006F953465A46C01A914110D31146184693
:1001F000224600F0EDF82D1A67EB01084F46224623
:100200000120002100F0E4F817EB00094E41201E08
:10021000A4F10104DFDC484631462A464346BDE8E6
:10022000F09FD2B201E000F8012B491EFBD27047CB
:100230000022F6E710B513460A4604461946FFF7B2
:10024000F0FF204610BD2DE9F04D81EA030404F0D3
:10025000004B21F0004514464FF0000A23F0004106
:1002600050EA050220D054EA01021DD0C5F30A5716
:100270000246C5F31303C1F31300C1F30A5640F459
:10028000801543F48013A7EB0608101BD64608F22E
:10029000FD3873EB050002D308F1010801E0921864
:1002A0005B41B8F1000F03DA00200146BDE8F08D94
:1002B00000204FF48011064684460EE0171B73EBB6
:1002C000050705D3121B63EB050306434CEA010C3B
:1002D00049084FEA300092185B4150EA0107EDD11E
:1002E00052EA030012D082EA040083EA05010843BF
:1002F00005D0101BAB4106D20122002306E00022EC
:100300004FF0004302E06FF0010253101AEB0600B9
:100310004CEB085110EB0A0041EB0B01BDE8F04D2E
:1003200000F0ACB80EB5C10F80EAE0700844CA070F
:10033000002140F233438DE80E000A460B4600F0E0
:10034000ACF803B000BD00F0004230F000400AD02D
:10035000C10D01F56071C0F3160042EA0151C208F7
:1003600040071143704700200146704701F00043E9
:1003700030B421F0004150EA010206D00A0DA2F586
:100380006072C1F31301002A02DC30BC0020704708
:10039000440F44EAC104C100E01830BC00EBC25075
:1003A00000F035B830B50B4601460020202201246C
:1003B00009E021FA02F59D4205D303FA02F5491B33
:1003C00004FA02F52844151EA2F10102F1DC30BD49
:1003D000202A04DB203A00FA02F100207047914005
:1003E000C2F1200320FA03F3194390407047202AFA
:1003F00004DB203A21FA02F00021704721FA02F3CF
:10040000D040C2F1200291400843194670470029AC
:10041000A8BF7047401C490008BF20F0010070478A
:1004200010B4B0FA80FC00FA0CF050EA010404BFEA
:1004300010BC704749B1CCF1200421FA04F411FA40
:100440000CF118BF012121430843A3EB0C01CB1D84
:100450004FEA00614FEA102042BF002010BC7047F5
:1004600000EBC35010440029A4BF10BC7047401CCF
:10047000490008BF20F0010010BC704710B5141EE1
:1004800073F1000408DA401C41F1000192185B414D
:100490001A4301D120F0010010BD2DE9F04D924624
:1004A0009B4611B1B1FA81F202E0B0FA80F220323B
:1004B0009046FFF78DFF04460F4640EA0A0041EAE6
:1004C0000B0153465A46084313D0114653EA010024
:1004D00019D0C8F140025046FFF789FF05460E4685
:1004E000504659464246FFF773FF084305D00120A6
:1004F00004E020463946BDE8F08D0020054346EA79
:10050000E0762C4337430A986305E40AA0EB080021
:100510000022FD0A44EA47540A3002D50020014671
:10052000E9E7010510196941DDE90845001969414C
:10053000BDE8F04DA2E72DE9FE4F804681EA0300B9
:10054000C00F0C46009021F0004123F00045B8EBAD
:100550000200A94105D24046214690461C460B4662
:10056000024623F00040104347D0270DC7F30A008E
:10057000C3F30A510290401A019040286BDAC3F38A
:10058000130040F4801B0098924620B10023D2EB68
:10059000030A63EB0B0B01985946C0F14002504629
:1005A000FFF716FF06460D4650465946019A00F0E1
:1005B0001DF910EB08006141002487EA115284EA1A
:1005C000E7731A4340D0009A62B3019A012A4FEAB6
:1005D000075215DC001B61EB02014FF0004202EAFA
:1005E0000752CDE90042001C41F5801132462B46EE
:1005F000FFF753FF03B0BDE8F08F40462146F9E70F
:10060000001B61EB0201001C41F5801300185B41E7
:100610002018A2F5001747EB030140EAD570B61980
:100620006D4111E06D084FEA360645EAC0754FEAA4
:100630000752001B61EB0201001C41F580114908C3
:100640004FEA30000019514132462B4603B0BDE855
:10065000F04FFFF713BF0098012240000023D0EBBA
:10066000020263EBE073009821464FEAE074B8EBB6
:10067000000061EB0401E9E783F000435BE781F0F0
:10068000004158E72DE9FE4F81EA030404F00044DD
:1006900021F0004100944FF0000B23F0004350EA9A
:1006A00001045ED052EA03045BD0C3F30A54C1F3E1
:1006B0000A552C44A4F2F3340194A0FB0254C1F374
:1006C000130141F48011C3F3130343F4801301FBBE
:1006D000024400FB034E840A970A44EA815447EA25
:1006E0008357A4FB076802958D0A05FB07854FEA2F
:1006F000932C04FB0C542705029D4FEA065847EA49
:100700001637B5EB08056EEB070C870E920E47EA1D
:10071000811742EA8312A7FB0201B6EB0B0164EBDF
:1007200000042B0D43EA0C335E1844EB1C50DA46F0
:100730005146E7FB0201C5F313044FEA0B3343EACA
:1007400014534FEA0432019C43EA0603A4F10C045B
:100750000294009CCDE900B4FFF79FFE03B0BDE812
:10076000F08F00200146F9E7C1F30A52C1F31301EB
:1007700040F2FF3341F480119A4202DA0020014630
:10078000704740F233439A42A2F2334202DC5242B3
:10079000FFF72DBEFFF71CBE30B5041E71F100043B
:1007A00004DB4FF00044404264EB0101141E73F17E
:1007B000000405DB1C464FF00043524263EB040388
:1007C000994208BF904230BD064C074D06E0E068F4
:1007D00040F0010394E8070098471034AC42F6D388
:1007E000FFF7D6FC4023000860230008202A06DB20
:1007F000CB17203A41FA02F043EAE07306E041FAEF
:1008000002F3D040C2F120029140084319467047DC
:10081000FEE7704770B5044600F0EEF80546601C30
:1008200002D004480078044400F0E6F8401BA042DF
:10083000FAD370BD140000202DE9F84FDFF880B125
:1008400000224FF003094FF00F0A0BF1040E0125AF
:100850000B6895402B40AB4272D14C68012C05D0FF
:10086000022C03D0112C01D0122C10D18668540018
:1008700009FA04F7BE43CF68A7403743876046684C
:100880000C79AE43C4F30014944034434460C4680C
:10089000570009FA07F58E68AC43BE402643C66090
:1008A0004C68022C01D0122C12D1D40800EB840C1D
:1008B000DCF820605407E40E0AFA04F826EA080679
:1008C000D1F8108008FA04F848EA0608CCF820802D
:1008D0000468AC430D7905F00305BD402543056070
:1008E0004C68E40065D5374C256845F480452560A3
:1008F000246822F0030504F480440094324C2E193D
:10090000D6F808789407250F0AFA05F4A7432F4C68
:10091000A04201D1002424E02D4CA04201D10124A9
:100920001FE02C4CA04201D102241AE02A4CA04224
:1009300001D1032415E0294CA04202D1042410E087
:1009400037E0274CA04201D105240AE0254CA04203
:1009500001D1062405E0244CA04201D1072400E087
:100960000824AC403C43C6F80848DBF800405D462C
:100970004E689C43F60300D51C432C60DEF8004013
:1009800075464E689C43B60300D51C432C600C4D45
:1009900008352C684E689C43F60200D51C432C6039
:1009A000074D0C352C684E689C43B60200D51C439D
:1009B0002C60521C102AFFF44AAFBDE8F88F0000EB
:1009C000003C014044380240003001400000024039
:1009D0000004024000080240000C024000100240E7
:1009E0000014024000180240001C02400AB181615C
:1009F00070470904FBE70000014880687047000069
:100A00001400002002488168027811448160704718
:100A1000140000200B4810B5016841F4007101601A
:100A2000016841F480610160016841F480710160F6
:100A3000032000F061F8002000F006F800F024F830
:100A4000002010BD003C024070B50D4D04464FF42F
:100A50007A712878B1FBF0F00A490968B1FBF0F02F
:100A600000F02DFC48B9102C07D200222146501E60
:100A700000F022F800206C6070BD012070BD000005
:100A800014000020200000200A4808B5016841F445
:100A900080410160006800F4804000900548001F1C
:100AA000016841F080510160006800F080500090C2
:100AB00008BD000044380240F0B40E4B1B68C3F37D
:100AC0000223C3F10704042C00D904241D1D072DA3
:100AD00001D2002300E0DB1E012606FA04F56D1E9C
:100AE0000D409D409E40761E164045EA0601F0BC32
:100AF00000F08ABD0CED00E0064A00F00701106826
:100B00004FF6FF03184040EA0120034908431060F4
:100B1000704700000CED00E00000FA052DE9F047F9
:100B20000D46040065D0DFF81491D9F80000EFB24B
:100B300000F00F00A84207D289F80070D9F8000031
:100B400000F00F00A84254D120683D4E810712D515
:100B5000400703D5306840F4E0503060207800074B
:100B600003D5306840F4604030603068A16820F000
:100B7000F000084330602078C0072DD0304960680D
:100B80000839012812D0022813D0032811D009688F
:100B9000890700292DDA316821F003010143316012
:100BA000FFF72AFF804641F2883A0EE00968890380
:100BB000EFE709688901ECE7FFF71EFFA0EB0801EA
:100BC000514502D90320BDE8F0873068616800F024
:100BD0000C00B0EB810FEFD1D9F80010484601F0BE
:100BE0000F01A94207D90770006800F00F00A84262
:100BF00001D00120E7E72078400705D53068E1689B
:100C000020F4E050084330602078000706D53068B3
:100C1000216920F4604040EAC100306000F018F81B
:100C20003168084AC1F30311515CC84006490860A5
:100C300006480068FFF708FF0020C4E7003C0240B8
:100C4000083802403023000820000020180000204F
:100C5000154810B5006810F00C01144813D0144B5F
:100C600004290FD008290ED10F4C241F216801F050
:100C70003F022168490207D52068C0F38810A0FB15
:100C8000030106E0184610BD2168C1F38811A1FBDD
:100C900000010023FFF794FA2168C1F30141491CC8
:100CA0004900B0FBF1F010BD083802400024F40008
:100CB00040787D012DE9F84F040075D02078DFF8E9
:100CC00028A3C007AAF1040548D00AF1040001686E
:100CD000C1F38101012908D00068C0F38100022816
:100CE0000AD1DAF80000400206D52868800335D51D
:100CF00060680028E1D031E06068B0F5803F10D036
:100D0000B0F5A02F286810D020F480302860286823
:100D100020F4802028606068A0B1FFF76DFE0646D1
:100D20000CE0286840F48030F4E740F4802028602C
:100D3000F7E7FFF761FE801B642871D828688003FD
:100D4000F7D50BE0FFF758FE064604E0FFF754FE28
:100D5000801B6428F1D828688003F7D42078DFF856
:100D60008C9280074FF0000B3DD59F48001D016815
:100D700011F00C0F08D00068C0F3810002280AD1DE
:100D8000DAF80000400206D42868800715D5E0682C
:100D9000012809D111E0E068B8B10121C9F80010BB
:100DA000FFF72AFE064605E01AE1FFF725FE801B45
:100DB0000228C2D828688007F7D52868216920F062
:100DC000F80040EAC10028600DE0C9F800B0FFF764
:100DD00013FE064604E0FFF70FFE801B02281FD813
:100DE00028688007F7D42078000722D57E4F8048F6
:100DF0006169703771B101210160FFF7FDFD0646A1
:100E000004E0FFF7F9FD801B022809D83868800745
:100E1000F7D50EE0C0F800B0FFF7EEFD064605E09E
:100E200082E0FFF7E9FD801B02287DD83868800743
:100E3000F7D42078400765D56B484FF000083C3068
:100E40000068C0000BD468483C30016841F0805114
:100E5000016000684FF0010800F080500090654F7D
:100E60003868C0050FD4386840F480703860FFF7E8
:100E7000C3FD064604E0FFF7BFFD801B022853D8E0
:100E80003868C005F7D5584FA0686C3701280FD0D7
:100E90000528386810D020F001003860386820F04C
:100EA00004003860A068B0B1FFF7A6FD06460EE06A
:100EB000386840F00100F4E740F004003860F7E7DC
:100EC000FFF79AFD811B41F28830814263D8386870
:100ED0008007F5D50DE0FFF78FFD064606E0FFF72A
:100EE0008BFD811B41F28830814254D838688007DD
:100EF000F5D4B8F1000F05D03B483C30016821F033
:100F000080510160A069B8B33749091D0968C1F370
:100F10008101022946D00228584606D0C9F860004F
:100F2000FFF76AFD044639E035E04F46C9F8600036
:100F3000FFF762FD064604E0FFF75EFD801B022816
:100F400029D828688001F7D4D4E907010843A16AA9
:100F5000294A490802EB0141626A41EA82110843C9
:100F600094F82C1040EA0161CAF80010012038669C
:100F7000FFF742FD044605E034E0FFF73DFD001BAE
:100F8000022808D828688001F7D52BE0FFF734FD48
:100F9000001B022802D90320BDE8F88F28688001D1
:100FA000F4D41FE00128F7D0DAF80000E26900F479
:100FB0008001914214D1226A00F03F0191420FD189
:100FC00047F6C071626A0140914209D1A26A00F4F9
:100FD0004031914204D1E16A00F07060884201D052
:100FE0000120D9E70020D7E704380240000047423B
:100FF000800E4742007000400000FFFF70B5040003
:1010000005D00025A56294F8510010B106E001203A
:1010100070BD84F85050204600F030F8022084F86B
:1010200051002068016821F040010160D4E901010C
:101030000843D4E903121143084361690843218B33
:1010400001F400710843E1690843216A0843A16A79
:10105000084321680860A069042101EA1040616A20
:101060000843216848602068C16921F40061C161BA
:101070006565012084F85100002070BD10B586B070
:10108000044614216846FFF7D3F8134920688842C4
:1010900020D112480021026842F4805202600068A8
:1010A00000F4805005900D481438026842F00102A7
:1010B0000260006800F001000590E020009002202E
:1010C000CDE90101032003900520049069460448FE
:1010D000FFF7B2FB06B010BD0030014044380240BB
:1010E000000002402DE9F84F044690F85000012519
:1010F0000A9E1F4692468B464FF0000801280ED0EC
:10110000012084F85000FFF777FC814694F85100E5
:10111000616801280CD0B1F5827F07D102E002207E
:10112000BDE8F88FA16809B9042801D00220B6E013
:10113000BBF1000F27D0BAF1000F24D01FB394F8F1
:101140005100042802D0052084F851000020606579
:10115000C4F838A0E787A787C4F830B0E786A78629
:101160002064606420680168490603D4016841F086
:1011700040010160E068B0F5006F606805D0E8B339
:10118000012F43D079E0012089E008B1012F34D14B
:10119000206B21680088C860206B801C2063E08E73
:1011A000401EE08629E02068816889070DD5E18E20
:1011B00059B1012D09D1216B0988C160206B801CB8
:1011C0002063E08E401EE086002520688168C90704
:1011D0000BD0E18F49B1C068A16B0880A06B801C67
:1011E000A063E08F401EE0870125FFF705FCA0EB20
:1011F0000900B04201D3701C50D100E006E0E08E3F
:101200000028D0D1E08F0028CDD13CE0206B2168B0
:1012100000780873206B401C2063E08E401EE0863F
:101220002BE02068816889070DD5E18E59B1012D29
:1012300009D1216B09780173206B401C2063E08E7B
:10124000401EE086002520688168C9070BD0E18F29
:1012500049B1C068A16B0870A06B401CA063E08F0F
:10126000401EE0870125FFF7C7FBA0EB0900B04255
:1012700002D3701C01D011E086B1E08E0028D0D1DD
:10128000E08F0028CDD14A463146204600F0E0F8F4
:1012900038B120204FF00108606508E00320804647
:1012A00005E0A06818B92068C16880680090012036
:1012B00084F85100002084F85000404630E710B513
:1012C000401EB0F1807F01D3012010BD4FF0E0241B
:1012D00060610F21601700F097F90020A0610720DE
:1012E0002061002010BDFEE73EB501EB0020002389
:1012F00080B2ADF80430ADF808001AB100F5004036
:10130000ADF808000B4C002208212046FFF76EFBC9
:101310000A210091012301AA02A90748FFF7E2FE72
:10132000012208212046FFF761FBBDF80400C0B28E
:101330003EBD000000100240240000202DE9F041D5
:1013400086B014216846FEF773FF2A48002401681E
:1013500041F010010160016801F010010591016880
:1013600041F001010160016801F00101059101688E
:1013700041F008010160016801F008010591016870
:1013800041F00201016000681B4E00F00200059070
:10139000002208213046FFF729FB184F0022FF21C9
:1013A0003846FFF723FBDFF8588000223021404603
:1013B000FFF71CFB082000900125CDE90154694688
:1013C00030460394FFF738FAFF200090CDE901542E
:1013D000694638460394FFF72FFA30200090CDE994
:1013E0000154694640460394FFF726FA06B0BDE86B
:1013F000F08100003038024000100240000C024032
:10140000000402400F4810B50D4901604FF482718D
:10141000416000214FF40062C0E9021292100161A4
:10142000C0E90512C1610162416281620A21C162A3
:10143000FFF7E4FD002801D072B6FEE710BD000002
:101440000030014024000020FEE7FEE77047000066
:1014500038B504461248134D4FF47A730068B0FB58
:10146000F5F0584300906068B0F5827F0DD10B46CF
:10147000009200228021204600F016F870B1606DC5
:1014800040F020006065032038BD009830B1401E58
:10149000009020688068C0430006F6D5002038BD63
:1014A0002000002000366E012DE9F0411D46174650
:1014B0000E460446DDF8188008E0681C06D0FFF7E9
:1014C0009BFAA0EB0800A8420BD255B120688068B7
:1014D00036EA000030D00020B842EED10020BDE84E
:1014E000F0812068416821F0E00141606068B0F55A
:1014F000827F0BD1A068B0F5004F02D0B0F5806FAD
:1015000004D12068016821F040010160A06AB0F5B3
:10151000005F09D12068016821F400510160206852
:10152000016841F400510160012084F8510000205D
:1015300084F850000320D2E70120CDE77047FFF781
:1015400061BA000010B592B030216846FEF770FE17
:1015500014210CA8FEF76CFE17480024016841F026
:1015600080510160006800F08050119013480168BC
:1015700041F4804101600068069400F480401190BD
:101580000220009001200390102004906846FFF78D
:1015900091FB08B172B6FEE70F20CDE90C040E9462
:1015A0000F9400210CA81094FFF7B8FA002801D07E
:1015B00072B6FEE712B010BD403802400070004025
:1015C0000548016841F47001016003494FF0006073
:1015D000803908607047000088ED00E0FEE70000F9
:1015E0000FB4084B10B504A902AA039800F0EEF856
:1015F000044602A9002000F080FC204610BC5DF8E3
:1016000014FB0000FB1E00080907090E002804DB7C
:1016100000F1E02080F80014704700F00F0000F1A6
:10162000E02080F8141D704702E008C8121F08C1AE
:10163000002AFAD170477047002001E001C1121F53
:10164000002AFBD1704700002DE9FF5F82B0002126
:10165000DDE90430020DDDF840B0034318D044F654
:101660001050A2F2FF3242431514119801281FD0E6
:10167000A5EB0B00401C5FEA000A4FF000064E4F3E
:10168000DFF83891B046504615D5CAF1000413E092
:10169000119801244AA3012801D16FEA0B01029895
:1016A000119AC0E90031C0E9024206B0BDE8F09FDE
:1016B000CBF10000DFE704460021404A491842EB25
:1016C0000450CDE9001012E0E00707D032463B4657
:1016D00040464946FEF7D6FF8046894632463B469D
:1016E00010461946FEF7CEFF06460F466410002C42
:1016F000EAD1DDE90401DDE90023BAF1000F06DAE1
:10170000FEF7C0FF42464B46FEF7BCFF05E0FEF782
:101710009AFD42464B46FEF796FD04460E460022D1
:10172000284BFFF739F803D84FF0FF30014607E0A8
:101730000022254B20463146FEF7FDFEFFF714F848
:10174000102409E0002C0ADB0A220023FEF738FDF2
:10175000039B30321A55641E50EA0102F2D1641C18
:10176000039AC4F111031444119A012A03D00122EF
:1017700008430DD10AE0084304D000204FF0110BBC
:10178000119072E7A3EB0B056D1E0DE05B4504DDC8
:101790004FF0000205F1010504E003DA4FF000020A
:1017A000A5F10105002AECD002981199C0E9023197
:1017B000C0E9004579E70000000014400000F03F58
:1017C000300000000000F0430000E03F2DE9FF4F33
:1017D00095B09B468946064600250FE2252877D11D
:1017E00000242746F84A0121059400E0044316F836
:1017F000013F203B01FA03F01042F7D130782A284C
:1018000011D06FF02F033078A0F13002092A16D8DA
:10181000059A44F0020402EB820203EB42021044F8
:10182000761C0590EFE759F8042B0592002A03DA9D
:10183000504244F40054059044F00204761C307881
:101840002E2816D116F8010F44F004042A280DD0D2
:101850006FF02F023078A0F13003092B09D807EB85
:10186000870302EB4303C718761CF3E759F8047BA0
:10187000761C30786C280FD006DC4C2817D06828EE
:101880000DD06A2814D104E0742810D07A280FD122
:101890000DE044F400140AE044F4801401E044F440
:1018A00040147278824202D104F58014761C761CB2
:1018B000307866280BD013DC582877D009DC002854
:1018C00075D04528F6D04628F4D047281AD19DE196
:1018D00018E0632835D0642879D0652812D195E1C5
:1018E000702873D008DC6728F1D069286FD06E2883
:1018F0000DD06F2806D1B5E073282CD0752875D08F
:10190000782874D05A46179990476D1C75E1C4F336
:101910000250022809D003280DD0D9F8001004285D
:101920000DD00D6009F1040967E1D9F80010EA173C
:10193000C1E90052F6E7D9F800100D80F2E70D700A
:10194000F0E719F8041B8DF8001000208DF8010055
:10195000EA46012003E059F804AB4FF0FF3061077D
:101960004FF0000102D40DE008F101018846B942B0
:101970000FDA8045F8DB1AF808100029F4D108E0E6
:1019800008F1010188468142FADB1AF808100029A3
:10199000F6D105985B46A0EB080721463846179A12
:1019A00000F094FA284400EB080507E04DE029E137
:1019B0000DE01AF8010B5A4617999047B8F1010843
:1019C000F7D25B4621463846179A13E142E00A22D5
:1019D0000092C4F302524FF0000A022A08D059F8CC
:1019E00004CB032A4FEAEC710AD00DE029E02AE08B
:1019F00009F1070121F00702F2E802C1914609E06E
:101A00000FFA8CFC4FEAEC71042A03D14FFA8CFCDC
:101A10004FEAEC71002907DA0A460021DCF1000CDC
:101A200061EB02012D2202E0220504D52B228DF864
:101A30000420012203E0E20701D02022F7E79046CC
:101A400059E00A2102E010220DE010214FF0000AB7
:101A500000910BE010224FF0000A44F00404082724
:101A6000009203E008224FF0000A0092C4F30252F1
:101A7000022A05D059F804CB0021032A08D009E036
:101A800009F1070121F00702F2E802C1914605E0E1
:101A90001FFA8CFC042A01D10CF0FF0C4FF0000857
:101AA000220728D5702806D0009B83F0100353EA44
:101AB0000A0305D00EE040228DF80420012208E040
:101AC0005CEA010206D030228DF804208DF8050072
:101AD00002229046009B83F0080353EA0A030AD1CE
:101AE0005CEA010201D1620705D530228DF804209D
:101AF0004FF001087F1E582804D034A003900EA890
:101B000002900DE036A0F9E753466046009AFEF7D2
:101B100057FB84460398825C0298401E0290027034
:101B20005CEA0100F0D1029806A9081A00F1200A27
:101B3000600702D524F4803400E00127574502DD18
:101B4000A7EB0A0000E0002000EB0A0100900598D6
:101B50004144401A0590E00306D45B462146179A9B
:101B6000059800F0B3F90544002706E001A85A469D
:101B7000C05D179990476D1C7F1C4745F6DBE0035D
:101B80000CD55B462146179A059800F09FF905444D
:101B900004E030205A46179990476D1C0099481E62
:101BA00000900029F5DC08E0029802995A46007876
:101BB000491C0291179990476D1CBAF10001AAF1D6
:101BC000010AF1DC65E100000928010030313233FF
:101BD0003435363738396162636465660000000069
:101BE0003031323334353637383941424344454653
:101BF0000000000000F058F90544761C30780028F9
:101C00007FF4ECAD19B02846BDE8F08F620700D430
:101C1000062709F1070222F0070CFCE80223E1463F
:101C200003F000485FEA080C02D00FF2702C0DE0C0
:101C30005FEA045C02D50FF2682C07E05FEAC47C1F
:101C400002D00FF2602C01E0AFF2700C4FF0FF38C1
:101C500023F00043CDF850C065280CD006DC4528A1
:101C600009D046281DD047283DD13DE0662818D030
:101C700067287ED138E00021112F01DB112000E020
:101C8000781CCDE9000106A90EA8FFF7DDFCDDE90F
:101C90000F010E9A03910021009207F1010A0491AD
:101CA0004DE04FF000400097CDE9011006A90EA8C5
:101CB000FFF7CAFCDDE90F0203920E9B1199002287
:101CC000DDF80CA00093049211B9791C00EB010A15
:101CD000B7EB0A0004D4C0F1FF3007F1010A049009
:101CE000AAEB0700019044E0012F00DA0127002150
:101CF000112F01DD112000E03846CDE9000106A9D1
:101D00000EA8FFF7A1FCDDE90F010E9A0391002157
:101D100004910092BA4621070CD40399514500DA88
:101D20008A46BAF1010F05DD009AAAF10101515C62
:101D3000302908D0B84202DA10F1040F06DA012186
:101D4000CDE9011015E0AAF10101E9E7002805DC61
:101D5000049901440491AAEB000102E0411C5145A1
:101D600000DD8A460499401A401C01904FF0004063
:101D70000290200704D40198504501DBCDF804807F
:101D800000208DF84F0002980DF14F07B0F1004F81
:101D900025D02B200E9002984FF0020800280CDA74
:101DA000404202902D200E9007E00A210298FEF793
:101DB000F9FA3031029007F8011DB8F10001A8F1DD
:101DC0000108F2DC02980028EFD1791E0E98087005
:101DD000307800F0200040F0450007F8020D12A80E
:101DE000C01B00F107081498007800B1012000EB37
:101DF0000A01019801EBE07105984144401A401E28
:101E00000590E00306D45B462146179A059800F03A
:101E10005DF805441498007818B15A461799904710
:101E20006D1CE00324D55B462146179A059800F007
:101E30004DF805441CE00498002807DBDDE90301A8
:101E4000884203DD0098405C179901E01799302023
:101E50005A469047049805F10105401C04900198EA
:101E6000401E019004D12E205A46179990476D1CB0
:101E7000BAF10001AAF1010ADDDC05E017F8010B57
:101E80005A46179990476D1CB8F10001A8F1010856
:101E9000F4DC5B462146179A0598ABE62D0000005E
:101EA0002B000000200000002DE9F0410446002531
:101EB0001E461746880404D405E039462020B04762
:101EC0006D1C641EF9D52846BDE8F0812DE9F0416E
:101ED000044600251E469046C80301D5302700E081
:101EE0002027880404D505E041463846B0476D1CDC
:101EF000641EF9D52846BDE8F0810A68531C0B60C2
:101F0000107070472DED048B8CB0142101A8FEF7E2
:101F10008FF9142106A8FEF78BF9FEF77BFDFFF77A
:101F200011FBFFF70BFAFFF76DFA00226321202067
:101F3000FFF7DAF98DF80000012200212020FFF7D9
:101F4000D3F9F34B63287DD0002208211846FEF711
:101F50004DFD3220FEF75EFCEE4E706900F47F40CE
:101F600040F03C0000907061EB4D0022202128469B
:101F7000FEF73CFD012210212846FEF737FD012027
:101F8000FEF748FC002210212846FEF72FFD012015
:101F9000FEF740FC012210212846FEF727FD012014
:101FA000FEF738FC002210212846FEF71FFD012015
:101FB000FEF730FC706900F47F4040F00F000090A5
:101FC0007061012210212846FEF710FD0120FEF766
:101FD00021FC002210212846FEF708FD0120FEF713
:101FE00019FC706900F47F4040F0010000907061BE
:101FF000012210212846FEF7F9FC0120FEF70AFC19
:10200000002210212846FEF7F1FC0120FEF702FC19
:10201000706900F47F4040F006000090706101227A
:1020200010212846FEF7E2FC0120FEF7F3FB002218
:1020300010212846FEF7DAFC0120FEF7EBFBDFF863
:10204000DC8200E061E19FEDB69B0DF104090DF12A
:10205000180A0C20FEF7DEFB706900F47F4040F0A8
:10206000010000907061002220212846FEF7BEFC8E
:10207000012210212846FEF7B9FC0120FEF7CAFB19
:10208000002210212846FEF7B1FC0120FEF7C2FB1A
:10209000012200212820FFF727F904460122002110
:1020A0002920FFF721F904EB00204446A8F802009C
:1020B000B8F802000004B8F8020001D5A0F580309D
:1020C00060606068FEF72EF9B0EE498AF0EE698A2A
:1020D00053EC182BFEF7B7F8FEF748F900EE100A9C
:1020E000012284ED040A00212A20FFF7FDF80746AB
:1020F000012200212B20FFF7F7F807EB00202080BA
:1021000020880004208801D5A0F58030A060A06858
:10211000FEF708F953EC182BFEF795F8FEF726F9B1
:1021200000EE100A84ED030A94ED040A10EE100A82
:10213000FEF709F941EC100B7BA153EC102B01A821
:10214000FFF74EFA94ED030A10EE100AFEF7FBF8C3
:1021500041EC100B74A153EC102B06A8FFF740FACA
:10216000706900F47F4040F05800009070610122D7
:1021700020212846FEF73AFC012210212846FEF7CE
:1021800035FC0120FEF746FB002210212846FEF711
:102190002DFC0120FEF73EFB706900F47F4040F00B
:1021A0003A0000907061012220212846FEF71EFCB3
:1021B000012210212846FEF719FC0120FEF72AFB18
:1021C000002210212846FEF711FC0120FEF722FB19
:1021D00000244F46385DE8B1716901F47F4108433E
:1021E00000907061012220212846FEF7FFFB0122AA
:1021F00010212846FEF7FAFB0120FEF70BFB002218
:1022000010212846FEF7F2FB0120FEF703FB641CB9
:102210000A2CDFDB706900F47F4040F0C0000090C2
:102220007061002220212846FEF7E0FB01221021E8
:102230002846FEF7DBFB0120FEF7ECFA0022102116
:102240002846FEF7D3FB0120FEF7E4FA706900F49C
:102250007F4040F059000090706101222021284603
:10226000FEF7C4FB012210212846FEF7BFFB012028
:10227000FEF7D0FA002210212846FEF7B7FB012016
:10228000FEF7C8FA706900F47F4040F03A00009011
:102290007061012220212846FEF7A8FB01221021AF
:1022A0002846FEF7A3FB0120FEF7B4FA0022102116
:1022B0002846FEF79BFB0120FEF7ACFA00245746A8
:1022C000385DE8B1716901F47F41084300907061A5
:1022D000012220212846FEF789FB012210212846F1
:1022E000FEF784FB0120FEF795FA00221021284614
:1022F000FEF77CFB0120FEF78DFA641C0A2CDFDB65
:102300004FF4FA70FEF786FAA3E601221DE60000FC
:1023100000100240000C02400004024000000020B7
:10232000C3F5285C8FEA6640252E32660000000067
:102330000000000000000000010203040607080975
:102340006023000800000020240000002816000878
:1023500084230008240000205C04000038160008D4
:10236000000000000000000000000000000000006D
:10237000000000000100000010000000000000004C
:042380000024F40041
:040000050800018965
:00000001FF
